:020000040800F2
:10000000008001205D360008F90A0008FB0A00089C
:10001000FD0A0008FF0A0008010B000800000000AC
:10002000000000000000000000000000030B0008BA
:10003000050B000800000000070B0008090B000872
:10004000AD360008AD360008AD360008AD36000804
:10005000AD360008AD360008AD360008AD360008F4
:10006000AD360008AD360008AD360008AD360008E4
:10007000AD360008AD360008AD360008AD360008D4
:10008000AD360008AD360008AD360008AD360008C4
:10009000110B0008210B0008AD360008AD36000832
:1000A000AD360008AD360008AD360008AD360008A4
:1000B000AD360008AD360008AD360008AD36000894
:1000C000AD360008AD360008AD360008AD36000884
:1000D000AD360008AD360008310B0008AD3600081B
:1000E000AD360008AD360008AD360008AD36000864
:1000F000AD360008AD360008AD360008AD36000854
:10010000AD360008AD360008AD360008AD36000843
:10011000AD360008AD360008AD360008AD36000833
:10012000AD360008AD360008AD360008AD36000823
:10013000AD360008AD360008AD360008AD36000813
:10014000AD360008AD360008AD360008AD36000803
:10015000AD360008AD360008AD360008AD360008F3
:10016000AD360008AD360008AD360008AD360008E3
:10017000AD360008AD360008AD36000800000000BE
:08018000AD360008AD360008A1
:1001880010B5054C237833B9044B13B10448AFF3C9
:1001980000800123237010BD6000002000000000D3
:1001A800A438000808B5034B1BB103490348AFF353
:1001B800008008BD0000000064000020A43800088A
:1001C80053B94AB9002908BF00281CBF4FF0FF31B6
:1001D8004FF0FF3000F088B9ADF1080C6DE904CE9E
:1001E80000F006F8DDF804E0DDE9022304B070470A
:1001F8002DE9F047089D8E4604468846002B4AD1D3
:100208008A42174662D9B2FA82F64EB1C6F1200385
:1002180001FA06F820FA03F3B74043EA0808B440A5
:100228004FEA174E1FFA87FCB8FBFEF1230C0EFBB2
:10023800118843EA084301FB0CF29A4209D9FB18DA
:1002480001F1FF3080F0EA809A4240F2E7800239FB
:100258003B449A1AA3B2B2FBFEF00EFB102243EA0B
:10026800024300FB0CFC9C4509D9FB1800F1FF3246
:1002780080F0D6809C4540F2D3803B44023840EA67
:100288000140A3EB0C0300211DB1F3400022C5E996
:100298000032BDE8F0878B4205D90DB1C5E90001F0
:1002A80000210846F5E7B3FA83F1002946D17345E2
:1002B80002D3824200F20581841A6EEB0302012008
:1002C8009046002DE5D0C5E90048E2E7002A00F095
:1002D8009080B2FA82F6002E40F0A4808A1A030CAD
:1002E8004FEA174E80B2BCB20121B2FBFEFC0EFBF6
:1002F8001C2243EA024304FB0CF29A4207D9FB187A
:100308000CF1FF3802D29A4200F2E080C4469B1AF0
:10031800B3FBFEF20EFB123340EA034302FB04F484
:100328009C4207D9FB1802F1FF3002D29C4200F22E
:10033800CA8002461B1B42EA0C40A5E7C1F1200611
:100348008B4022FA06F71F430EFA01F420FA06F34F
:100358002EFA06FE4FEA1749234300FA01F81FFA5E
:1003680087FCBEFBF9F01C0C09FB10EE44EA0E44B6
:1003780000FB0CFEA64502FA01F209D93C1900F16E
:10038800FF3A80F09C80A64540F2998002383C44B0
:10039800A4EB0E041FFA83FEB4FBF9F309FB134424
:1003A8004EEA044403FB0CFCA44508D93C1903F1AC
:1003B800FF3E80F08280A4457FD9023B3C4443EA5B
:1003C8000040A4EB0C04A0FB02EC64457346E14634
:1003D80062D35FD05DB1B8EB030264EB090404FAA1
:1003E80006F622FA01F31E43CC40C5E90064002159
:1003F8004FE7B1FBF2FC010C41EA0E4180B240EA42
:1004080001423B4638463C46B846BE462026B1FB2C
:10041800F7F1A2EB080241EA0C4166E7014618E74A
:1004280010462CE7C6F120022EFA02F3B740B1407D
:1004380020FA02F24FEA174E0A43B3FBFEF8BCB2A9
:100448000EFB1833110C41EA034108FB04F9B040D4
:1004580089454FEA104380B23ED9791808F1FF3C2C
:1004680001D289451FD8A1EB0901B1FBFEF909FBAF
:1004780004F80EFB191192B242EA0142424529D210
:10048800BA1809F1FF31C4D24245C2D2A9F102011A
:100498003A44BEE7F0459DD2BEEB02036CEB070C75
:1004A8000138E14696E7A7EB09094944A8F1020C8F
:1004B800B1FBFEF909FB04F8DBE773467FE750461A
:1004C80066E70846FDE63B44023A33E7ACF1020C26
:1004D8003B441CE749469CE7A1EB0901C446B1FB34
:1004E800FEF909FB04F8C4E7704700BF82B0064B69
:1004F800DA6C42F00102DA64DB6C03F00103019369
:10050800019B02B0704700BF0010024010B582B0D6
:10051800002100910191074C6B46224600F08DFDA9
:100528004FF47A73228A694604F11C0002F021FF15
:1005380002B010BD7C000020032819D8DFE800F0C5
:1005480002070D130B4B0022C3F8A8207047094B74
:100558004FF08042C3F8A8207047064B4FF0004286
:10056800C3F8A8207047034B4FF04042C3F8A820B7
:10057800704700BF7C00002001380F2867D8DFE8EB
:1005880000F0080D13191F252B31373D43494F55EE
:100598005B612F4B0022C3F8B02070472C4B4FF4FF
:1005A8008032C3F8B0207047294B4FF40032C3F8AB
:1005B800B0207047264B4FF44032C3F8B020704744
:1005C800234B4FF48022C3F8B0207047204B4FF4E0
:1005D800A022C3F8B02070471D4B4FF4C022C3F8C7
:1005E800B02070471A4B4FF4E022C3F8B020704790
:1005F800174B4FF40022C3F8B0207047144B4FF448
:100608001022C3F8B0207047114B4FF42022C3F8D2
:10061800B02070470E4B4FF43022C3F8B02070471B
:100628000B4B4FF44022C3F8B0207047084B4FF4EF
:100638005022C3F8B0207047054B4FF46022C3F82E
:10064800B0207047024B4FF47022C3F8B0207047B7
:100658007C0000200138072833D8DFE800F00409BF
:100668000F151B21272D174B0022C3F8B420704704
:10067800144B4FF48012C3F8B4207047114B4FF459
:100688000012C3F8B42070470E4B4FF44012C3F861
:10069800B42070470B4B4FF48002C3F8B420704766
:1006A800084B4FF4A002C3F8B4207047054B4FF431
:1006B800C002C3F8B4207047024B4FF4E002C3F8FD
:1006C800B42070477C0000200138032819D8DFE8DF
:1006D80000F002070D130B4B0022C3F8AC20704743
:1006E800084B4FF08072C3F8AC207047054B4FF0B1
:1006F8000072C3F8AC207047024B4FF04072C3F849
:10070800AC2070477C00002010B53E4B93F8C830F1
:10071800022B09D0012B50D03A480E2200F1C80113
:100728001C3002F067FF10BD364B93F8CA00C3F8BF
:10073800E80093F8D530012B1FD00423314AC2F8C2
:10074800E030E3B9134692F8C920C3F8D8202D4BFE
:1007580093F8D330012B18D002222A4BC3F8E42097
:1007680093F8D420012A14BF0022012283F8EC2038
:1007780002F09AFF0246002311E00023DEE7214B36
:1007880093F8C920C3F8DC20E1E70022E5E703F18C
:10079800030C1C49614491F8C810D154013319491C
:1007A80091F8CA109942F2DC164800F1F00300F102
:1007B800D801A03000F0CCFBAEE7124C94F8C93059
:1007C800C4F8A43094F8CA00FFF7B6FE94F8CB003A
:1007D800FFF77AFF94F8CC00FFF7CEFE94F8CD002F
:1007E800FFF738FFA034204600F09EFB204600F0BB
:1007F80013FA204600F039FB0221204600F0C2FC23
:100808008AE700BF7C00002072B6FEE708B50C48F6
:100818000C4BC0F8A030002380F8B83080F8B9300D
:1008280080F8BA3080F8BB3080F8BC3080F8BD3032
:10083800A03000F0F1F900B908BDFFF7E5FF00BFEF
:100848007C0000200064004000B58BB01448154BB4
:10085800C3614FF4E1330362002343628362C362DE
:100868000C22026343638363C36303641C3002F096
:1008780024FE98B9012208920A23059300230493C1
:100888000093019302930393069307920993694691
:10089800054800F067FA0BB05DF804FBFFF7B4FFFA
:1008A8007C000020004400401C01002000B597B0E7
:1008B8004422002105A802F0ADFF00230093019314
:1008C8000293039304934FF4007001F021F828BBBE
:1008D8001023059301220B9200230C9360230D93A0
:1008E80002230F931092119214221292072213924C
:1008F8001493159305A801F0EFF888B90F23009316
:1009080003230193902302930021039104916846E5
:1009180001F0F0FB30B917B05DF804FBFFF774FF86
:10092800FFF772FFFFF770FF08B500F053F9FFF704
:10093800BDFFFFF7DBFDFFF769FFFFF785FF094CF8
:1009480004F1A005284600F090FA0E2204F1C8012F
:1009580004F11C0002F04EFE0221284600F012FCB1
:10096800FEE700BF7C00002082B00A4B1A6E42F0FE
:1009780001021A661A6E02F001020092009A9A6D3C
:1009880042F080529A659B6D03F080530193019B5E
:1009980002B070470010024000B589B000230393ED
:1009A800049305930693079302681C4B9A4202D05E
:1009B80009B05DF804FB03F5D6339A6D42F0007276
:1009C8009A659A6D02F000720192019ADA6C42F00F
:1009D8000102DA64DB6C03F001030293029B4FF41B
:1009E800C053039302230493032306930923079315
:1009F80003A94FF0904000F0EBFD002211461420AF
:100A080000F06CFD142000F079FD0022114615203D
:100A180000F064FD152000F071FDC9E70064004096
:100A280008B502680A4B9A4200D008BD094A936D7E
:100A380023F0007393654FF4C0514FF0904000F0DD
:100A4800C7FE142000F05EFD152000F05BFDECE70A
:100A5800006400400010024010B5AAB0044600210E
:100A680025912691279128912991882203A802F09F
:100A7800D1FE22681C4B9A4201D02AB010BD022335
:100A8800039303A801F082FD50BB184B9A6D42F402
:100A980000329A659A6D02F400320192019ADA6C7A
:100AA80042F00102DA64DB6C03F001030293029B5B
:100AB8000C232593022326930024279403232893A9
:100AC8000723299325A94FF0904000F081FD224685
:100AD8002146262000F002FD262000F00FFDCCE77D
:100AE800FFF792FED1E700BF00440040001002402B
:100AF800FEE7FEE7FEE7FEE7FEE770477047704750
:100B080008B500F077F808BD08B5024800F058FBB2
:100B180008BD00BF1C01002008B5024800F050FBCA
:100B280008BD00BF1C01002008B5024801F09EFF67
:100B380008BD00BF9800002008B503460B4A12689C
:100B480042B10A4A106803446A46934206D8074AE3
:100B5800136008BD054A06491160F2E702F072FE0B
:100B68000C2303604FF0FF30F3E700BF7001002053
:100B7800C8020020034AD2F8883043F47003C2F850
:100B88008830704700ED00E0104B1B780BB901204E
:100B9800704710B504464FF47A70B0FBF3F30C4A73
:100BA8001068B0FBF3F000F0B1FC68B90F2C01D964
:100BB80001200AE0002221464FF0FF3000F08EFCB1
:100BC800024B5C60002000E0012010BD0400002002
:100BD8000000002010B5032000F06EFC0F20FFF786
:100BE800D3FF10B10124204610BD0446FFF7BCFE18
:100BF800F9E70000034B1B78034A11680B441360A4
:100C0800704700BF0400002078010020014B1868DD
:100C1800704700BF78010020002800F0A18038B597
:100C2800044690F82030D3B12268136843F00103DA
:100C38001360FFF7EBFF054623685A6812F0010FAF
:100C480010D1FFF7E3FF401B0A28F5D9636A43F484
:100C580000336362052384F82030012038BDFFF794
:100C68009BFEE1E71A6822F002021A60FFF7CEFF46
:100C7800054623685A6812F0020F0DD0FFF7C6FF29
:100C8800401B0A28F5D9636A43F4003363620523DD
:100C980084F820300120E1E7227E012A3DD01A683D
:100CA80022F080021A60637E012B3BD02268136811
:100CB80023F040031360A37E012B39D02268136808
:100CC80023F020031360E37E012B37D022681368DA
:100CD80043F010031360237F012B35D0226813687B
:100CE80023F008031360637F012B33D02268136855
:100CF80023F004031360A368E268134322691343D3
:100D0800626913436268013A21681343CB6100208A
:100D18006062012384F82030A0E71A6842F080025C
:100D28001A60C0E72268136843F040031360C2E703
:100D38002268136843F020031360C4E7226813682D
:100D480023F010031360C6E72268136843F0080312
:100D58001360C8E72268136843F004031360CAE706
:100D680001207047026890F82030013BDBB2012B6C
:100D780005D9436A43F4802343620120704730B4A5
:100D8800D2F8003243F00103C2F800324B6903F095
:100D98001F03012000FA03F3D2F81C026FEA030CC8
:100DA80020EA0300C2F81C02C869B0B9D2F80C02E4
:100DB8000CEA0000C2F80C028C884869CD6844EA45
:100DC8000544483042F830400C8848698D6844EA48
:100DD8000544483002EBC0004460C86901281BD0B4
:100DE800886980BBD2F804020CEA0000C2F8040249
:100DF800086970BBD2F814020CEA0000C2F81402A9
:100E0800096A01292BD0D2F8003223F00103C2F875
:100E18000032002030BC7047D2F80C021843C2F8E8
:100E28000C028C8848690D6844EA0544483042F849
:100E380030408C8948698D6844EA0544483002EBA3
:100E4800C0004460CCE7D2F804021843C2F8040298
:100E5800CEE7D2F814021843C2F81402D0E7D2F849
:100E68001C120B43C2F81C32CDE770B5044690F84B
:100E78002050EDB2012D06D0436A43F400234362AB
:100E88000125284670BD022380F8203002681368C7
:100E980023F001031360FFF7B9FE064623685B6879
:100EA80013F0010F0CD0FFF7B1FE831B0A2BF5D905
:100EB800636A43F400336362052384F82030E0E773
:100EC80000256562DDE738B5044690F82030DBB2CE
:100ED800022B05D0436A43F480134362012038BDD6
:100EE8000268136843F001031360FFF78FFE05469D
:100EF80023685A6812F0010F0DD1FFF787FE431BD4
:100F08000A2BF5D9636A43F400336362052384F836
:100F180020300120E3E71A6822F002021A60012358
:100F280084F820300020DAE780B110B50446FFF7D6
:100F3800CAFF2046FFF774FD2268136843F4004394
:100F480013600020606284F8200010BD0120704703
:100F580030B590F820C00468A4680CF1FF3C5FFA33
:100F68008CFCBCF1010F62D814F0E05F59D0C4F3D7
:100F7800016C012404FA0CF41C608B68002B3DD131
:100F88000D68CB68046843EA45550CF118031B014A
:100F9800E55003680C690CF1180E03EB0E135C6046
:100FA8000B7D012B35D0D17993791B0443EA01637A
:100FB800517943EA012314790168234301EB0C11A9
:100FC800C1F88C31D17893781B0443EA01635178D6
:100FD80043EA0123117802680B4302EB0C12C2F8B2
:100FE800883102680CF1180C4FEA0C1C52F80C30CE
:100FF80043F0010342F80C3000201DE04C6843EA3E
:10100800C403CC6823430CF11804240105682B5150
:10101800BFE7036803EB0E13596841F48071596008
:10102800C1E7436A43F400134362012004E0436AC2
:1010380043F480234362012030BD90F820C00CF1B6
:10104800FF3C5FFA8CFCBCF1010F00F2958030B4D4
:1010580051B90468E46814F0030F10D1436A43F4EB
:1010680000134362012077E00468246914F0030F39
:1010780005D1436A43F40013436201206CE001F197
:101088001B04240105682C5904F004049460002C06
:1010980064D101F11B04240105682C59640D146006
:1010A800046801F11B0C4FEA0C1C54F80C4004F0C6
:1010B8000204D46004686444646804F00F04146192
:1010C800046864446468C4F307249461046864444D
:1010D8006468240C5461026802EB0112D2F8B8214A
:1010E8001A70026802EB0112D2F8B821C2F3072283
:1010F8005A70026802EB0112D2F8B821C2F3074213
:101108009A70026802EB0112D2F8B821120EDA7056
:10111800026802EB0112D2F8BC211A71026802EBD4
:101128000112D2F8BC21C2F307225A71026802EBFD
:101138000112D2F8BC21C2F307429A71026802EB8D
:101148000112D2F8BC21120EDA7179B90268D3689B
:1011580043F02003D360002030BC704701F11B042A
:10116800240105682C59E408546099E7026813695A
:1011780043F020031361EEE7436A43F4802343629C
:101188000120704790F82030013BDBB2012B05D9D4
:10119800436A43F48023436201207047026853691D
:1011A8000B43536100207047704770477047704782
:1011B800704770477047704770477047704770476F
:1011C8002DE9F84F054603685C69D3F804809F68E9
:1011D800D3F80CA0D3F81090D3F818B014F0010687
:1011E8003BD017F0010616D001229A6017F0020FC3
:1011F80008D117F0040F0CD117F0080606D04FF4E9
:10120800805608E0FFF7D0FF002604E0FFF7CFFF85
:1012180001E04FF4006617F4807F0DD02B684FF47F
:1012280080729A6017F4007F40F0968017F4806F00
:1012380000F0968046F4005617F4803F0DD02B68D6
:101248004FF480329A6017F4003F40F0938017F40F
:10125800802F00F0938046F4004614F0080F07D062
:101268001AF0100F04D046F400762B681022DA60CA
:1012780014F0040F03D01AF0080F40F0898014F01E
:10128800020F05D02B68DB6813F0030F40F087804E
:1012980014F0400F07D019F0100F04D046F4806600
:1012A8002B6810221A6114F0200F02D019F0080FD1
:1012B80079D114F0100F04D02B681B6913F0030FB9
:1012C80078D114F4003F02D018F0100F76D114F43E
:1012D800803F02D018F0080F77D114F4004F37D0B0
:1012E80018F0040F31D014F4807F04D01BF0010FE4
:1012F80001D046F0010614F4007F04D01BF0020F61
:1013080001D046F0020614F4806F04D01BF0040FDD
:1013180001D046F0040614F4006F16D01BF0700BD1
:1013280013D0BBF1400F66D056D8BBF1200F5CD06C
:10133800BBF1300F5CD0BBF1100F01D146F00806AD
:101348002A68936923F0700393612B6804225A601A
:10135800002E56D1BDE8F88F2846FFF726FF6BE729
:1013680017F4006F02D046F4804665E72846FFF779
:101378001FFF61E72846FFF719FF6EE717F4002FF4
:1013880002D046F4803668E72846FFF712FF64E784
:101398002B680822DA602846FFF70CFF6FE728461B
:1013A800FFF7B4F874E72B6808221A612846FFF79C
:1013B80003FF7EE72846FFF7FEFE82E72B68102230
:1013C8005A602846FFF7F9FE81E72B6808225A6021
:1013D8002846FFF7F3FE80E7BBF1500F0ED0BBF1B4
:1013E800600FADD146F48076AAE746F01006A7E76D
:1013F80046F02006A4E746F04006A1E746F080063E
:101408009EE76B6A33436B622846FFF7D8FEA1E775
:10141800002807DB00F01F02400901239340024A1D
:1014280042F82030704700BF00E100E000280CDBE4
:1014380000F01F024009012393402030034A42F87C
:101448002030BFF34F8FBFF36F8F704700E100E08C
:10145800002808DB0901C9B200F1604000F56140CD
:1014680080F80013704700F00F000901C9B2014B62
:101478001954704714ED00E000B500F00700C0F102
:10148800070CBCF1040F28BF4FF0040C031D062BFA
:101498000FD9C31E4FF0FF3E0EFA0CF021EA0001EF
:1014A80099400EFA03FE22EA0E0241EA02005DF8B4
:1014B80004FB0023EEE70000074AD36823F4E06347
:1014C8001B041B0C000200F4E060034343F0BF63FD
:1014D80043F40033D360704700ED00E010B50446D4
:1014E800054BD868C0F30220FFF7C6FF0146204627
:1014F800FFF7AEFF10BD00BF00ED00E008B5FFF735
:1015080087FF08BD08B5FFF791FF08BD0138B0F1A6
:10151800807F0BD24FF0E0235861054AF02182F812
:1015280023100020986107221A6170470120704734
:1015380000ED00E090F82530DBB2022B06D0042342
:10154800C363002380F824300120704702681368C1
:1015580023F00E0313600268136823F0010313607D
:10156800436C03F01C03016C012202FA03F34B6085
:1015780080F82520002380F824301846704708B5E5
:1015880090F82530DBB2022B03D00423C36301207B
:1015980008BD0268136823F00E031360026813681D
:1015A80023F001031360436C03F01C03016C012258
:1015B80002FA03F34B6080F82520002380F82430DA
:1015C800836B13B198470020E2E70020E0E70000B2
:1015D800F0B583B000236BE085685E000324B44057
:1015E80025EA0405CC68B4402C438460456825EAA4
:1015F8000C054C68C4F300149C402C43446069E01B
:10160800C56A25EA0C05C4F3C0049C402C43C46297
:1016180066E0DD08083550F8254003F0070C4FEA6E
:101628008C0C4FF00F0E0EFA0CFE24EA0E0E0C690D
:1016380004FA0CF444EA0E0440F8254067E0062456
:1016480000E0002404FA0EF42C430CF1020C5C4D6B
:1016580045F82C405B4CA568D44325EA02064F6840
:1016680017F4801F01D042EA0506564DAE60ED68BA
:1016780004EA05064F6817F4001F01D042EA050680
:10168800504DEE606D6804EA05064F6817F4003F98
:1016980001D042EA05064B4D6E602D682C404E681D
:1016A80016F4803F01D042EA0504464A146001332B
:1016B8000A6832FA03F400F081804FF0010C0CFA4A
:1016C80003FC1CEA0202F2D04C6804F00304013C5B
:1016D800012C81D94C6804F0030EBEF1030F8FD0A2
:1016E8004C6804F00304032C0CD0C4685D004FF070
:1016F800030C0CFA05FC24EA0C0C8C68AC4044EA98
:101708000C04C4604C6804F00304022C81D0046803
:101718004FEA430E4FF0030C0CFA0EFC24EA0C0CB3
:101728004C6804F0030404FA0EF444EA0C04046060
:101738004C6814F4403FBAD0234C256E45F001059F
:101748002566246E04F001040194019C4FEA930C71
:101758000CF102051A4C54F8255003F0030E4FEA19
:101768008E0E0F2404FA0EF425EA0405B0F1904F0A
:101778003FF467AF154CA04216D004F58064A04230
:1017880014D004F58064A04212D004F58064A0420D
:1017980010D004F58064A0420ED004F58064A04205
:1017A8003FF44DAF07244DE701244BE7022449E7F6
:1017B800032447E7042445E7052443E703B0F0BDC5
:1017C80000000140000401400010024000040048ED
:1017D800002331FA03F200F08B80F0B532E00625E1
:1017E80000E0002505FA0CF5A54265D004685D0007
:1017F8004FF0030C0CFA05FC44EA0C0404604FEAB1
:10180800D30E0EF1080E50F82E4003F00706B6006E
:101818000F25B54024EA050440F82E40846824EAE0
:101828000C048460446824EA02044460C46824EA1E
:101838000C04C460C46A24EA0202C262013331FAA9
:1018480003F254D001229A4012EA0107F6D04FEA77
:10185800930E0EF10205274C54F8254003F0030CB3
:101868004FEA8C0C0F2505FA0CF63440B0F1904F76
:10187800B7D0214DA84215D005F58065A84213D0F0
:1018880005F58065A84211D005F58065A8420FD0FE
:1018980005F58065A8420DD005F58065A8429ED063
:1018A80007259FE701259DE702259BE7032599E783
:1018B800042597E7052595E7104C256825EA0705CF
:1018C8002560656825EA07056560E56825EA070576
:1018D800E560A56825EA0705A560064F0EF1020434
:1018E80057F8245025EA060547F824507EE7F0BD4E
:1018F800704700BF00000140000400480004014098
:10190800024B186800F4C060704700BF00700040C8
:10191800B0F5007F0FD01F4B1B6803F4C063B3F50D
:10192800806F34D01B4A136823F4C06343F4806388
:10193800136000207047174B1B6803F4C063B3F5AE
:10194800007F20D0134A136823F4C06343F4007364
:101958001360114B1B68322202FB03F30F4AA2FBF0
:1019680003239B0C013300E0013B0A4A526912F43D
:10197800806F01D0002BF7D1064B5B6913F4806FA1
:1019880003D10020704700207047032070470020D3
:10199800704700BF007000400000002083DE1B433A
:1019A80030B583B00446204B9B6D13F0805F0BD09D
:1019B800FFF7A6FFB0F5007F17D0802C1FD82DD0D9
:1019C800702C2DD000211BE0174DAB6D43F08053D8
:1019D800AB65AB6D03F080530193019BFFF790FF5C
:1019E800AB6D23F08053AB65E4E7802C03D9A02CC2
:1019F80003D9022104E0002102E0012100E00321D3
:101A08000A4A136823F007030B431360136803F0B3
:101A180007038B4206D1002003B030BD0221EFE757
:101A28000121EDE70120F7E7001002400020024005
:101A3800254A9368D26802F0030213F00C0309D018
:101A48000C2B05D0042B3BD0082B3BD000200FE0FB
:101A5800012AF7D11C4A126812F0080F0CD11A4A51
:101A6800D2F89420C2F30322184951F8220013B186
:101A78000C2B06D000207047134A1268C2F30312D9
:101A8800F2E7114BDB6803F00303022B16D0032B9C
:101A980000D10F480C49CA68C2F302120132CB6860
:101AA800C3F3062300FB03F3B3FBF2F3C868C0F3E8
:101AB800416001304000B3FBF0F070470548E9E7AA
:101AC800044870470248704700100240C0380008B8
:101AD80000127A000024F400002800F0F182F0B52A
:101AE80083B00446964B9D6805F00C05DE6806F049
:101AF8000306036813F0100F5AD0E5B10C2D18D067
:101B0800A369002B00F0BB808D4A136843F00103E2
:101B18001360FFF77BF80746894B1B6813F0020F29
:101B280040F09A80FFF772F8C01B0228F4D903200E
:101B3800D1E2012EE4D1824B1B6813F0020F03D0CF
:101B4800A369002B00F0BE82206A7D4B1B6813F04E
:101B5800080F5BD07A4B1B6803F0F00398425CD8FF
:101B6800774B1A6842F008021A601A6822F0F002ED
:101B7800216A0A431A605A6822F47F42E16942EAFC
:101B880001225A60002D60D0FFF752FF6C4B9B6812
:101B9800C3F303136B4AD35C03F01F03D8406A4BAB
:101BA80018606A4B1868FEF7EFFF002840F0938230
:101BB800236813F0010F00F08180082D75D00C2DDB
:101BC80071D06368B3F5803F00F09780B3F5A02F1C
:101BD80000F099805A4B1A6822F480321A601A6809
:101BE80022F480221A606368002B00F09980FFF7C6
:101BF8000DF80746524B1B6813F4003F5ED1FFF700
:101C080005F8C01B6428F5D9032064E24C4BD3F8CF
:101C180094301B0903F0F003A0E7FFF7C1FE00288A
:101C280040F05282464B1A6842F008021A601A685D
:101C380022F0F002216A0A431A605A6822F47F42AD
:101C4800E16942EA01225A609EE7206AFFF7A8FE8E
:101C5800002899D001203EE2394B1A6842F0080268
:101C68001A601A6822F0F002216A0A431A605A6858
:101C780022F47F42E16942EA01225A6098E7304A39
:101C8800136823F001031360FEF7C0FF07462C4BCF
:101C98001B6813F0020F8BD0FEF7B8FFC01B022899
:101CA800F5D9032017E2032E8BD1254B1B6813F4BB
:101CB800003F03D06368002B00F00882236813F00C
:101CC800020F58D0042D45D00C2D41D0E368002BCD
:101CD80077D01B4A136843F480731360FEF796FFAE
:101CE8000646174B1B6813F4806F61D1FEF78EFF11
:101CF800801B0228F5D90320EDE1114A136843F44B
:101D0800803313606FE703F18043A3F53C331A680F
:101D180042F480221A601A6842F480321A6062E73C
:101D2800FEF774FF0746064B1B6813F4003FC5D047
:101D3800FEF76CFFC01B6428F5D90320CBE100BF78
:101D480000100240F03800080000002008000020C1
:101D5800022EBBD1A34B1B6813F4806F03D0E3683A
:101D6800002B00F0B5819F4A536823F0F85321698E
:101D780043EA01635360236813F0080F4CD063698A
:101D88009BB3984AD2F8943043F00103C2F89430D8
:101D9800FEF73CFF0646934BD3F8943013F0020F3E
:101DA8003AD1FEF733FF801B0228F4D9032092E1D1
:101DB8008C4A536823F0F853216943EA016353605E
:101DC800D9E7884A136823F480731360FEF71EFF6F
:101DD8000646844B1B6813F4806FCCD0FEF716FFC1
:101DE800801B0228F5D9032075E17E4AD2F8943089
:101DF80023F00103C2F89430FEF708FF0646794B3A
:101E0800D3F8943013F0020F06D0FEF7FFFE801BC4
:101E18000228F4D903205EE1236813F0040F7AD076
:101E2800704B9B6D13F0805F36D16E4B9A6D42F00C
:101E380080529A659B6D03F080530193019B0126A4
:101E4800694B1B6813F4807F28D0A368012B39D015
:101E5800052B3FD0634BD3F8902022F00102C3F842
:101E68009020D3F8902022F00402C3F89020A368B1
:101E7800002B3DD0FEF7CAFE07465A4BD3F89030E8
:101E880013F0020F46D1FEF7C1FEC01B41F28833A2
:101E98009842F2D903201EE10026D1E7524A13687E
:101EA80043F480731360FEF7B1FE07464E4B1B6880
:101EB80013F4807FC9D1FEF7A9FEC01B0228F5D90B
:101EC800032008E1474AD2F8903043F00103C2F8F2
:101ED8009030CCE7434BD3F8902042F00402C3F88B
:101EE8009020D3F8902042F00102C3F89020BEE77A
:101EF800FEF78CFE07463B4BD3F8903013F0020FE9
:101F080008D0FEF783FEC01B41F288339842F2D90D
:101F18000320E0E0EEB9A36A002B00F0DB80022B7F
:101F28001DD00C2D00F0DD802E4A136823F080733D
:101F38001360FEF76BFE04462A4B1B6813F0007F04
:101F480000F0B780FEF762FE001B0228F4D90320D8
:101F5800C1E0244A936D23F080539365DBE7214B5E
:101F6800DB6803F00301E26A91420FD00C2D00F008
:101F7800B4801C4B1B6813F0806F40F0B080194B85
:101F88001B6813F0805F31D00120A4E003F07002D9
:101F9800216B0139B2EB011FE8D103F4FE42616BFA
:101FA800B2EB012FE2D103F40031A26B073A18BF5C
:101FB80001229142DAD103F4C001E26B5208013ADE
:101FC800B1EB425FD2D103F0C063226C5208013AF0
:101FD800B3EB426FCAD1034B1B6813F0007F4ED09E
:101FE800002078E000100240007000403E4A13686C
:101FF80023F080731360FEF709FE05463A4B1B6811
:1020080013F0007F06D0FEF701FE401B0228F5D929
:10201800032060E0344AD36834491940E36A206BEE
:10202800013843EA0013606B43EA0023E06B400881
:10203800013843EA4053206C4008013843EA4063C2
:10204800A06B000943EA40431943D160136843F089
:1020580080731360D36843F08073D360FEF7D6FDB6
:102068000446214B1B6813F0007F06D1FEF7CEFD16
:10207800001B0228F5D903202DE000202BE01A4B85
:102088001A6842F080721A60DA6842F08072DA6088
:10209800FEF7BCFD0446144B1B6813F0007F06D105
:1020A800FEF7B4FD031B022BF5D9032013E0002033
:1020B80011E00D4AD1680E4B0B40D36000200AE0B6
:1020C80001207047012006E0012004E0012002E021
:1020D800012000E0002003B0F0BD0120FBE7012053
:1020E800F9E70120F7E700BF001002408C809DF956
:1020F800FCFFEEFE002800F0AF8070B50D460446E8
:10210800594B1B6803F007038B420BD2564A1368DE
:1021180023F007030B431360136803F007038B4294
:1021280040F09C80236813F0020F0CD0A2684F4B3C
:102138009B6803F0F0039A4205D94C498B6823F059
:10214800F0031A438A60236813F0010F39D06368DB
:10215800032B09D0022B26D063BB444A126812F025
:10216800020F06D1012076E0404A126812F0007F83
:1021780076D03E498A6822F0030213438B60FEF74B
:1021880045FD0646394B9B6803F00C036268B3EBC8
:10219800820F16D0FEF73AFD801B41F28833984231
:1021A800F0D9032057E0314A126812F4003FE0D119
:1021B800012050E02D4A126812F4806FD9D1012015
:1021C80049E0236813F0020F0CD0A268274B9B68E4
:1021D80003F0F0039A4205D224498B6823F0F003F8
:1021E8001A438A60204B1B6803F00703AB420AD9E5
:1021F8001D4A136823F007032B431360136803F089
:102208000703AB422ED1236813F0040F06D0174AF8
:10221800936823F4E063E1680B439360236813F049
:10222800080F07D0114A936823F46053216943EAE1
:10223800C1039360FFF7FCFB0C4B9B68C3F30313CC
:102248000B4AD35C03F01F03D8400A4B18600A4BB3
:102258001868FEF799FC70BD012070470120FAE765
:102268000120F8E70120F6E70020024000100240B4
:10227800F03800080000002008000020014B186812
:10228800704700BF0000002008B5FFF7F7FF054BB7
:102298009B68C3F30223044AD35C03F01F03D840AE
:1022A80008BD00BF001002400039000808B5FFF75C
:1022B800E5FF054B9B68C3F3C223044AD35C03F0D4
:1022C8001F03D84008BD00BF0010024000390008B5
:1022D800F8B504460D46594BDB6813F0030F18D0C8
:1022E800564BDB6803F003030268934202D00126D1
:1022F8003046F8BD002A00F09D80504BDB68C3F3E0
:10230800021301334268934201D00126F0E7002608
:1023180019E00368022B56D0032B5BD0012B40F049
:102328008B80464A126812F0020F5FD04348C26899
:1023380022F073026168013943EA01131343C36051
:102348000026002ED4D13D4A136823F08063136021
:10235800FEF75CFC0746394B1B6813F0006F05D08D
:10236800FEF754FCC31B022BF5D90326002EBFD160
:10237800002D3DD131490B6923F41F3323F44073F9
:10238800A068E2681209520442EA002213430B6172
:102398002A4A136843F080631360FEF737FC05464A
:1023A800264B1B6813F0006F05D1FEF72FFC401B6E
:1023B8000228F5D90326002E9AD1204A1369A1696B
:1023C8000B43136194E71D4A126812F4806FADD174
:1023D80001268DE7194A126812F4003FA6D1174A60
:1023E800126812F4802FA1D1012681E70126A8E7FF
:1023F800012D0FD01148026922F0C06222F4FE427A
:10240800A16863695B08013B5B0643EA01231A4341
:102418000261BDE70948026922F4C00222F4FE42C3
:10242800A16823695B08013B5B0543EA01231A4362
:102438000261ADE701265BE7012659E7001002407B
:10244800F8B504460D46504BDB6813F0030F18D05F
:102458004D4BDB6803F003030268934202D0012668
:102468003046F8BD002A00F08A80474BDB68C3F38A
:10247800021301334268934201D00126F0E7002697
:1024880018E00368022B55D0032B5AD0012B78D1C2
:102498003D4A126812F0020F5FD03B48C26822F032
:1024A80073026168013943EA01131343C3600026CC
:1024B800002ED5D1344A136823F080531360FEF7F9
:1024C800A5FB0746304B1B6813F0005F05D0FEF7ED
:1024D8009DFBC31B022BF5D90326002EC0D1002D6E
:1024E8003DD129494B6923F41F3323F44073A06875
:1024F800E2681209520442EA002213434B61224A5D
:10250800136843F080531360FEF780FB05461E4BAB
:102518001B6813F0005F05D1FEF778FB401B02280B
:10252800F5D90326002E9BD1174A536961690B43DD
:10253800536195E7144A126812F4806FADD10126F1
:102548008EE7114A126812F4003FA6D10E4A1268AB
:1025580012F4802FA1D1012682E70126A8E70A48B4
:10256800426922F0C06222F4FE42A16823695B0836
:10257800013B5B0643EA01231A434261BFE7012698
:102588006EE701266CE700BF001002402DE9F0411C
:1025980082B00446036813F4006F33D0436EB3F57A
:1025A800000F15D00CD823B3B3F5800F05D1002147
:1025B8002030FFF745FF064620E001273E4623E08E
:1025C800B3F5400F01D1002608E001273E461BE085
:1025D8005E4AD36843F48033D36000265B4AD2F85E
:1025E800883023F44003616E0B43C2F8883000271B
:1025F8000AE000210430FFF76BFE0646002EEDD0FE
:10260800374601E000273E46236813F4805F30D048
:10261800A36EB3F1007F1FD00DD81BB3B3F1807F39
:1026280006D1002104F12000FFF70AFF064605E065
:1026380001273E461DE0B3F1407F0AD1C6B9434A9F
:10264800D2F8883023F04073A16E0B43C2F888306B
:102658000FE001273E460CE03C4AD36843F4803340
:10266800D360EBE70021201DFFF732FE0646E5E7C1
:102678003746236813F4003F71D0344B9B6D13F039
:10268800805F4ED1314B9A6D42F080529A659B6DB6
:1026980003F080530193019B4FF001082C4A136803
:1026A80043F480731360FEF7B1FA0546284B1B68A4
:1026B80013F4807F05D1FEF7A9FA401B0228F5D94B
:1026C8000326002E46D1214BD3F8903013F44073E3
:1026D80019D0D4F884209A4212D01C4AD2F89030EB
:1026E80023F44073D2F8901041F48031C2F890106E
:1026F800D2F8901021F48031C2F89010C2F89030CE
:1027080013F0010F10D1002E40F027810F4AD2F8A4
:10271800903023F44073D4F884100B43C2F89030FF
:1027280019E04FF00008B9E7FEF770FA0546074BC5
:10273800D3F8903013F0020FE5D1FEF767FA401B8B
:1027480041F288339842F2D90326DCE700100240B0
:10275800007000403746B8F1000F40F00081236850
:1027680013F0010F08D09D4AD2F8883023F00303F4
:10277800A16B0B43C2F88830236813F0020F08D00E
:10278800964AD2F8883023F00C03E16B0B43C2F869
:102798008830236813F0040F08D0904AD2F88830A4
:1027A80023F03003216C0B43C2F88830236813F000
:1027B800080F08D0894AD2F8883023F0C003616C2A
:1027C8000B43C2F88830236813F0100F08D0834AEF
:1027D800D2F8883023F44073A16C0B43C2F88830D8
:1027E800236813F0200F08D07C4AD2F8883023F4ED
:1027F8004063E16C0B43C2F88830236813F4007F10
:1028080008D0764AD2F8883023F44023E16D0B4390
:10281800C2F88830236813F4806F08D06F4AD2F862
:10282800883023F44013216E0B43C2F888302368A4
:1028380013F0400F08D0694AD2F8883023F4405387
:10284800216D0B43C2F88830236813F0800F08D03D
:10285800624AD2F8883023F44043616D0B43C2F8D2
:102868008830236813F4807F08D05C4AD2F8883017
:1028780023F44033A16D0B43C2F88830236813F466
:10288800005F0FD0554AD2F8883023F04063E16EDC
:102898000B43C2F88830E36EB3F1006F65D0B3F133
:1028A800806F67D0236813F4002F0FD04B4AD2F8FB
:1028B800883023F04063216F0B43C2F88830236FC0
:1028C800B3F1006F5ED0B3F1806F60D0236813F46A
:1028D800802F0FD0414AD2F8883023F04063616FCF
:1028E8000B43C2F88830636FB3F1006F57D0B3F170
:1028F800806F59D0236813F4804F0FD0374AD2F82D
:10290800883023F04053A16F0B43C2F88830A36F7F
:10291800B3F1805F50D0B3F1005F55D0236813F452
:10292800004F08D02D4AD2F8883023F08043E16F59
:102938000B43C2F88830236813F4803F09D0274A34
:10294800D2F8883023F00043D4F880100B43C2F843
:102958008830384602B0BDE8F0813746FBE61F4AAA
:10296800936D23F080539365F9E6D36843F480139D
:10297800D36097E70121201DFFF7AAFC002891D01A
:1029880007468FE7D36843F48013D3609EE701219D
:10299800201DFFF79DFC002898D0074696E7D368CE
:1029A80043F48013D360A5E70121201DFFF790FCB5
:1029B80000289FD007469DE70221201DFFF788FCCD
:1029C8000028ABD00746A9E7022104F12000FFF751
:1029D80037FD0028A2D00746A0E700BF001002403C
:1029E800026852E8003F23F4907342E8003100295E
:1029F800F6D1026802F1080353E8003F23F001030F
:102A0800083242E800310029F3D1036E012B05D0CA
:102A18002023C3670023036643667047026852E8B1
:102A2800003F23F0100342E800310029F6D1EFE718
:102A3800704708B5026852E8003F23F0400342E8B7
:102A480000310029F6D12023836700238366FFF72E
:102A5800EFFF08BD704708B5806A0023A0F85A3018
:102A6800A0F85230FFF7F6FF08BD704770B504466E
:102A78000268D3691168906840F60F0C13EA0C0FCE
:102A88000AD113F0200F0DD011F0200F0AD0636E79
:102A98000BB3204698471EE010F001051CD1A94E43
:102AA800314219D1256E012D00F0A48013F4801F46
:102AB80003D010F4800F40F0328113F0800F03D060
:102AC80011F0800F40F0328113F0400F03D011F065
:102AD800400F40F0328170BD13F0010F09D011F49E
:102AE800807F06D001201062D4F880200243C4F809
:102AF800802013F0020F09D045B12268022010622D
:102B0800D4F8802042F00402C4F8802013F0040FA7
:102B180009D045B1226804201062D4F8802042F020
:102B28000202C4F8802013F0080F0BD011F0200F18
:102B380000D13DB1226808201062D4F880200243F9
:102B4800C4F8802013F4006F0CD011F0806F09D006
:102B580022684FF400601062D4F8802042F020020E
:102B6800C4F88020D4F88020002AB4D013F0200FB5
:102B780006D011F0200F03D0636E0BB120469847A2
:102B8800D4F8802023689B6813F0400F02D112F01C
:102B9800280F28D02046FFF723FF23689B6813F0EF
:102BA800400F1CD0226802F1080353E8003F23F0CD
:102BB8004003083242E800310029F3D1236F53B1B2
:102BC800614A9A63206FFEF7DAFC002883D0206FF1
:102BD800836B98477FE72046FFF73CFF7BE720465B
:102BE800FFF738FF77E72046FFF734FF0023C4F8E4
:102BF800803070E713F0100F3FF458AF11F0100F4A
:102C08003FF454AF1023136223689B6813F0400FFE
:102C18004ED0226F13685B689BB2002B3FF45BAF0A
:102C2800B4F8581099427FF656AFA4F85A30136892
:102C38001B6813F0200F30D1226852E8003F23F4BC
:102C4800807342E800310029F6D1226802F10803B6
:102C580053E8003F23F00103083242E8003100291D
:102C6800F3D1226802F1080353E8003F23F0400340
:102C7800083242E800310029F3D12023E36700231A
:102C88002366226852E8003F23F0100342E800312F
:102C98000029F6D1206FFEF74DFCB4F85810B4F8AF
:102CA8005A309BB2C91A89B22046FFF7DEFE12E7F6
:102CB800B4F85810B4F85A309BB2C91A89B2B4F8AB
:102CC8005A309BB2002B3FF406AF00293FF403AF04
:102CD800226852E8003F23F4907342E8003000284D
:102CE800F6D1226802F1080353E8003F23F00103FC
:102CF800083242E800300028F3D12023E36700239C
:102D080023666366226852E8003F23F0100342E816
:102D180000300028F6D12046FFF7A7FEDBE64FF487
:102D280080131362204600F093FCD4E6A36E002BB8
:102D38003FF4D1AE20469847CDE62046FFF779FE0E
:102D4800C9E600BF200100045F2A000808B5B0F8F2
:102D58005C30C26F222A06D00268138B9BB243F004
:102D68000803138308BD0268918CDBB2426D0B40E7
:102D78001370436D01334365B0F85A309BB2013B81
:102D88009BB2A0F85A30B0F85A309BB2002BE9D168
:102D9800026852E8003F23F4907342E800310029AA
:102DA800F6D1026802F1080353E8003F23F001035B
:102DB800083242E800310029F3D12023C3670023F9
:102DC8004366036E012B16D100230366026852E89E
:102DD800003F23F0100342E800310029F6D10368D0
:102DE800DA6912F0100F01D010221A62B0F85810E8
:102DF800FFF73BFEB6E7FDF787FCB3E708B5B0F889
:102E08005C30C26F222A06D00268138B9BB243F053
:102E18000803138308BD0268918C426D0B40138030
:102E2800436D02334365B0F85A309BB2013B9BB205
:102E3800A0F85A30B0F85A309BB2002BEAD1026899
:102E480052E8003F23F4907342E800310029F6D19C
:102E5800026802F1080353E8003F23F00103083237
:102E680042E800310029F3D12023C36700234366D9
:102E7800036E012B16D100230366026852E8003F57
:102E880023F0100342E800310029F6D10368DA691B
:102E980012F0100F01D010221A62B0F85810FFF784
:102EA800E4FDB7E7FDF730FCB4E7000010B50446D1
:102EB80083680269134342691343C2691343016873
:102EC80008688F4A02401A430A602268536823F44C
:102ED8004053E1680B435360A1692268894B9A42C9
:102EE80001D0236A1943936823F430630B4393603A
:102EF8002368854A934226D0844A934237D0844A2D
:102F080093424DD0834A93425DD0834A93426CD01A
:102F18007C4A93427ED010227A498B4200F0B380DB
:102F2800E069B0F5004F00F0E080082A00F24B811C
:102F3800DFE812F01A013001180149013301490193
:102F480049014901360102F55842D2F8882002F0B9
:102F58000302032A09D8DFE802F0020472060122FC
:102F6800DAE70422D8E70822D6E71022D4E702F5E8
:102F7800E632D2F8882002F00C020C2A0ED8DFE8DC
:102F880002F0070D0D0D090D0D0D600D0D0D0B0057
:102F98000022C1E70422BFE70822BDE71022BBE7F1
:102FA80002F5E432D2F8882002F03002202A4AD012
:102FB80005D8002A49D0102A49D10422ACE7302A82
:102FC80047D10822A8E702F5E232D2F8882002F0B9
:102FD800C002802A3FD004D8FAB3402A3FD1042245
:102FE8009AE7C02A3DD1082296E702F5E032D2F8E6
:102FF800882002F44072B2F5007F34D005D8A2B31D
:10300800B2F5807F33D1042286E7B2F5407F30D114
:10301800082281E702F5C832D2F8882002F440621B
:10302800B2F5006F27D005D83AB3B2F5806F26D134
:10303800042271E7B2F5406F23D108226CE702221F
:103048006AE7022268E7022266E7002264E71022A4
:1030580062E7102260E702225EE700225CE71022A6
:103068005AE7102258E7022256E7002254E71022B6
:1030780052E7102250E702224EE700224CE71022C6
:103088004AE7102248E7082A00F28D80DFE802F0BC
:10309800088B2B8B288B8B8B05004FF4004004E0AA
:1030A800FFF7F2F8002800F08080626802EB420324
:1030B80083427CD8B0EB023F7BD8010E0002530854
:1030C800C0184FF0000341F10001FDF779F8A0F5B1
:1030D8004072124B9A426ED82368D860002055E09F
:1030E800FEF7A6FCDEE70E48DFE7082A65D8DFE82A
:1030F80002F019330564366464641D00084815E05D
:10310800F369FFEF008000400038014000440040B0
:1031180000480040004C004000500040FFFC0F00F9
:103128000024F400FFF7B0F8002848D0626853087C
:1031380003EB4003B3FBF2F3A3F110014FF6EF7278
:1031480091423ED89AB222F00F02C3F342031343CE
:103158002268D360002019E0FFF7A8F8E4E7FEF73B
:1031680067FCE1E71B4802E0FFF78EF868B3636885
:1031780000EB5300B0FBF3F0A0F110024FF6EF7331
:103188009A4224D8236880B2D8600020002363665E
:10319800A36610BDFFF78AF8E8E7FEF749FCE5E704
:1031A8004FF40040E3E70120F0E70020EEE70120BC
:1031B800ECE70120EAE70120E8E70120E6E7002044
:1031C800E4E70120E2E70120E0E70020DEE7012054
:1031D800DCE700BF0024F400436A13F0010F06D0B7
:1031E8000268536823F40033816A0B435360436ACF
:1031F80013F0020F06D00268536823F48033C16AC3
:103208000B435360436A13F0040F06D002685368F7
:1032180023F48023016B0B435360436A13F0080FB8
:1032280006D00268536823F40043416B0B43536094
:10323800436A13F0100F06D00268936823F4805392
:10324800816B0B439360436A13F0200F06D002682A
:10325800936823F40053C16B0B439360436A13F0E4
:10326800400F0AD00268536823F48013016C0B43A3
:103278005360036CB3F5801F0BD0436A13F0800FC3
:1032880006D00268536823F40023816C0B43536013
:1032980070470268536823F4C003416C0B435360C2
:1032A800EBE72DE9F84305460F4616469946DDF843
:1032B80020802B68DC6937EA04040CBF0124002451
:1032C800B44253D1B8F1FF3FF3D0FDF79FFCA0EB18
:1032D800090040452DD8B8F1000F2AD02B681A688C
:1032E80012F0040FE5D0DA6912F4006FE1D04FF460
:1032F80000621A622A6852E8003F23F4D07342E859
:1033080000310029F6D12A6802F1080353E8003F8A
:1033180023F00103083242E800310029F3D12023C9
:10332800AB67EB67C5F88030002385F8743003205D
:103338001DE02A6852E8003F23F4D07342E80031C8
:103348000029F6D12A6802F1080353E8003F23F068
:103358000103083242E800310029F3D12023AB678A
:10336800EB67002385F87430032000E00020BDE8F7
:10337800F8832DE9F04182B01E46836F202B56D189
:1033880004460D469046002955D0002A55D090F89D
:103398007430012B53D0012380F874300023C0F817
:1033A800803021238367FDF731FC0746A4F850805D
:1033B800A4F85280A368B3F5805F05D04FF00008E9
:1033C800002384F8743014E0236913B14FF0000827
:1033D800F6E7A8460025F3E738F8023B2268C3F36E
:1033E80008031385B4F8522092B2013A92B2A4F8B5
:1033F8005220B4F852309BB273B100963B4600227B
:1034080080212046FFF74DFFD8B9002DE4D015F8EC
:10341800012B23681A85E5E700963B4600224021E8
:103428002046FFF73EFF70B92023A36700E0022083
:1034380002B0BDE8F0810120FAE70120F8E7022098
:10344800F6E70320F4E70320F2E730B583B004463B
:103458000023C0F88030FDF7D9FB054622681268C2
:1034680012F0080F0DD123681B6813F0040F16D152
:103478002023A367E3670020206684F8740003B064
:1034880030BD6FF07E430093034600224FF40011D5
:103498002046FFF706FF0028E5D00320EFE76FF08E
:1034A8007E4300932B4600224FF480012046FFF70D
:1034B800F8FE0028DCD00320E1E768B310B5044625
:1034C800836F03B32423A3672268136823F00103DF
:1034D80013602046FFF7EAFC012813D0636ABBB9E2
:1034E8002268536823F4904353602268936823F05A
:1034F8002A0393602268136843F00103136020468F
:10350800FFF7A3FF10BD80F87430FDF7A5FAD9E7DF
:103518002046FFF761FEE3E7012070474165A0F808
:103528005820A0F85A20002343668368B3F5805FCB
:1035380006D0A3B9036973B9FF23A0F85C3014E07F
:10354800036923B940F2FF13A0F85C300DE0FF23B4
:10355800A0F85C3009E07F23A0F85C3005E0B3F107
:10356800805F29D00023A0F85C300023C0F88030A9
:103578002223C367026802F1080353E8003F43F0BF
:103588000103083242E800310029F3D18368B3F51A
:10359800805F1BD0154B4366002380F874300369A5
:1035A800D3B1026852E8003F43F4907342E8003117
:1035B8000029F6D10020704703691BB97F23A0F8C2
:1035C8005C30D2E73F23A0F85C30CEE70369002BDC
:1035D800E0D1074B4366DFE7026852E8003F43F05B
:1035E800200342E800310029F6D1E3E7552D000811
:1035F800052E000838B5C36F202B1ED1F9B102B3D0
:1036080090F87430012B1ED0012380F87430002309
:10361800036603680D4CA3420CD05B6813F4000FDB
:1036280008D0046854E8003F43F0806344E800355C
:10363800002DF6D1FFF772FF00E0022038BD01200F
:10364800FCE70120FAE70220F8E700BF008000400D
:1036580070470000DFF834D0FDF78CFA0C480D49AC
:103668000D4A002302E0D458C4500433C4188C42D5
:10367800F9D30A4A0A4C002301E013600432A2423B
:10368800FBD300F0E5F8FDF74FF9FEE700800120D5
:1036980000000020600000202039000860000020A1
:1036A800C4020020FEE70000024B0146186800F043
:1036B80025B800BF0C00002070B50F4E0C463168CD
:1036C800054611B900F0AEF830602146284600F0F2
:1036D800A9F8431C03D14FF0FF34204670BDC41C29
:1036E80024F00304A042F8D0211A284600F09AF8E2
:1036F8000130F2D1EFE700BF7C0100202DE9F8434B
:10370800CD1C25F0030508350C2D38BF0C25002DE0
:10371800064601DBA94204D90C2333600020BDE82A
:10372800F883DFF8D48000F069F8D8F800301C4638
:1037380044BB29463046FFF7BFFF431C044658D117
:10374800D8F800402746002F43D1002C4BD02368DF
:103758003946304604EB030900F064F8814542D14C
:1037680021686D1A29463046FFF7A6FF01303AD086
:1037780023682B442360D8F800305A6862BBC8F825
:1037880000700FE02268521B20D40B2A17D9611948
:10379800A342256018BF5960636808BFC8F80010C5
:1037A80062514B60304600F02FF804F10B00231DE6
:1037B80020F00700C21A1CBF1B1AA350AFE76268AB
:1037C800A3420CBFC8F800205A60EBE723466468A0
:1037D800AEE73C467F68B6E71A465B68A342FBD172
:1037E80000235360DEE70C233360304600F00CF80A
:1037F80094E70560D6E700BF80010020014800F08B
:103808004BB800BFC0020020014800F046B800BF16
:10381800C002002002440346934200D1704703F8D7
:10382800011BF9E738B5064D0023044608462B600E
:10383800FDF782F9431C02D12B6803B1236038BD20
:10384800BC020020014B1868704700BF0C00002024
:1038580070B50D4D0D4C641BA4100026A64209D16D
:103868000B4D0C4C00F01AF8641BA4100026A6425D
:1038780005D170BD55F8043B98470136EEE755F879
:10388800043B98470136F2E7103900081039000860
:10389800103900081439000870477047F8B500BFA0
:1038A800F8BC08BC9E467047F8B500BFF8BC08BC19
:0838B8009E467047000000006D
:1038C000A0860100400D0300801A060000350C00A0
:1038D00040420F0080841E0000093D0000127A0063
:1038E0000024F40000366E010048E801006CDC02A0
:1038F00000000000000000000102030406070809A0
:083900000000000001020304B5
:08390800F0C8FF7F0100000080
:08391000AD01000800000000F9
:08391800890100080000000015
:1039200000093D0001000000100000001000002010
:103930000000000084010020EC010020540200205F
:103940000000000000000000000000000000000077
:103950000000000000000000000000000000000067
:103960000000000000000000000000000000000057
:103970000000000000000000000000000000000047
:040000050800365D5C
:00000001FF
