:020000040800F2
:1000000000800120F9330008910A0008930A0008D3
:10001000950A0008970A0008990A000800000000E5
:100020000000000000000000000000009B0A000823
:100030009D0A0008000000009F0A0008A10A0008AD
:10004000493400084934000849340008493400089C
:10005000493400084934000849340008493400088C
:10006000493400084934000849340008493400087C
:10007000493400084934000849340008493400086C
:10008000493400084934000849340008493400085C
:10009000A90A0008B90A00084934000849340008D0
:1000A000493400084934000849340008493400083C
:1000B000493400084934000849340008493400082C
:1000C000493400084934000849340008493400081C
:1000D0004934000849340008C90A000849340008B6
:1000E00049340008493400084934000849340008FC
:1000F00049340008493400084934000849340008EC
:1001000049340008493400084934000849340008DB
:1001100049340008493400084934000849340008CB
:1001200049340008493400084934000849340008BB
:1001300049340008493400084934000849340008AB
:10014000493400084934000849340008493400089B
:10015000493400084934000849340008493400088B
:10016000493400084934000849340008493400087B
:1001700049340008493400084934000800000000F0
:0801800049340008493400086D
:1001880010B5054C237833B9044B13B10448AFF3C9
:1001980000800123237010BD7000002000000000C3
:1001A8002436000808B5034B1BB103490348AFF3D5
:1001B800008008BD000000007400002024360008FC
:1001C80053B94AB9002908BF00281CBF4FF0FF31B6
:1001D8004FF0FF3000F074B9ADF1080C6DE904CEB2
:1001E80000F006F8DDF804E0DDE9022304B070470A
:1001F8002DE9F047089D04468E46002B4DD18A42D2
:10020800944669D9B2FA82F252B101FA02F3C2F104
:10021800200120FA01F10CFA02FC41EA030E944095
:100228004FEA1C48210CBEFBF8F61FFA8CF708FBB6
:1002380016E341EA034306FB07F199420AD91CEB8E
:10024800030306F1FF3080F01F81994240F21C81C0
:10025800023E63445B1AA4B2B3FBF8F008FB103308
:1002680044EA034400FB07F7A7420AD91CEB04043D
:1002780000F1FF3380F00A81A74240F2078164440D
:10028800023840EA0640E41B00261DB1D440002392
:10029800C5E900433146BDE8F0878B4209D9002DF6
:1002A80000F0EF800026C5E9000130463146BDE880
:1002B800F087B3FA83F6002E4AD18B4202D38242EA
:1002C80000F2F980841A61EB030301209E46002D99
:1002D800E0D0C5E9004EDDE702B9FFDEB2FA82F2EE
:1002E800002A40F09280A1EB0C014FEA1C471FFA4C
:1002F8008CFE0126200CB1FBF7F307FB131140EA33
:1003080001410EFB03F0884208D91CEB010103F1FF
:10031800FF3802D2884200F2CB804346091AA4B2C1
:10032800B1FBF7F007FB101144EA01440EFB00FE95
:10033800A64508D91CEB040400F1FF3102D2A645FA
:1003480000F2BB800846A4EB0E0440EA03409CE799
:10035800C6F12007B34022FA07FC4CEA030C20FA46
:1003680007F401FA06F31C43F9404FEA1C4900FA66
:1003780006F3B1FBF9F8200C1FFA8CFE09FB1811E3
:1003880040EA014108FB0EF0884202FA06F20BD956
:100398001CEB010108F1FF3A80F08880884240F2A6
:1003A8008580A8F102086144091AA4B2B1FBF9F0EA
:1003B80009FB101144EA014100FB0EFE8E4508D9E5
:1003C8001CEB010100F1FF346CD28E456AD902386A
:1003D800614440EA0840A0FB0294A1EB0E01A1424F
:1003E800C846A64656D353D05DB1B3EB080261EBBD
:1003F8000E0101FA07F722FA06F3F1401F43C5E997
:10040800007100263146BDE8F087C2F12003D840CC
:100418000CFA02FC21FA03F3914001434FEA1C470E
:100428001FFA8CFEB3FBF7F007FB10360B0C43EA00
:10043800064300FB0EF69E4204FA02F408D91CEBB0
:10044800030300F1FF382FD29E422DD902386344AE
:100458009B1B89B2B3FBF7F607FB163341EA03414E
:1004680006FB0EF38B4208D91CEB010106F1FF389D
:1004780016D28B4214D9023E6144C91A46EA004694
:1004880038E72E46284605E70646E3E61846F8E626
:100498004B45A9D2B9EB020864EB0C0E0138A3E76F
:1004A8004646EAE7204694E74046D1E7D0467BE750
:1004B800023B614432E7304609E76444023842E7C8
:1004C800704700BF82B0064BDA6C42F00102DA6472
:1004D800DB6C03F001030193019B02B0704700BF7E
:1004E8000010024070B506460E4D687802F0D4FF41
:1004F8000446034605F110020021304600F024FDB1
:10050800A123E37005F12C064FF47A7308222146E3
:10051800304602F0FCFD0E222946304602F038FF34
:1005280070BD00BF8C000020032819D8DFE800F058
:1005380002070D130B4B0022C3F8B8207047094B74
:100548004FF08042C3F8B8207047064B4FF0004286
:10055800C3F8B8207047034B4FF04042C3F8B820A7
:10056800704700BF8C00002001380F2867D8DFE8EB
:1005780000F0080D13191F252B31373D43494F55FE
:100588005B612F4B0022C3F8C02070472C4B4FF4FF
:100598008032C3F8C0207047294B4FF40032C3F8AB
:1005A800C0207047264B4FF44032C3F8C020704734
:1005B800234B4FF48022C3F8C0207047204B4FF4E0
:1005C800A022C3F8C02070471D4B4FF4C022C3F8C7
:1005D800C02070471A4B4FF4E022C3F8C020704780
:1005E800174B4FF40022C3F8C0207047144B4FF448
:1005F8001022C3F8C0207047114B4FF42022C3F8D3
:10060800C02070470E4B4FF43022C3F8C02070470B
:100618000B4B4FF44022C3F8C0207047084B4FF4EF
:100628005022C3F8C0207047054B4FF46022C3F82E
:10063800C0207047024B4FF47022C3F8C0207047A7
:100648008C0000200138072833D8DFE800F00409BF
:100658000F151B21272D174B0022C3F8C420704704
:10066800144B4FF48012C3F8C4207047114B4FF459
:100678000012C3F8C42070470E4B4FF44012C3F861
:10068800C42070470B4B4FF48002C3F8C420704756
:10069800084B4FF4A002C3F8C4207047054B4FF431
:1006A800C002C3F8C4207047024B4FF4E002C3F8FD
:1006B800C42070478C0000200138032819D8DFE8CF
:1006C80000F002070D130B4B0022C3F8BC20704743
:1006D800084B4FF08072C3F8BC207047054B4FF0B1
:1006E8000072C3F8BC207047024B4FF04072C3F849
:1006F800BC2070478C00002010B52E4B1B78022BB5
:1007080002D0012B3FD010BD2A4B9878C3F8E800DF
:100718005B7B012B1CD00423264AC2F8E030CBB9FE
:1007280013465278C3F8D820224BDB7A012B16D017
:100738000222204BC3F8E4201A7B012A14BF0022AE
:10074800012283F8EC2002F0A7FE024600230DE008
:100758000023E1E7174B5A78C3F8DC20E4E70022CE
:10076800E7E7D91C134C615CD154013311498978EE
:100778009942F6DC0F4800F1F00300F1D801B030DF
:1007880000F06DFBBFE70B4C6378C4F8B430A07879
:10079800FFF7CAFEE078FFF78FFF2079FFF7E4FE46
:1007A8006079FFF74FFF0E22214604F12C0002F07A
:1007B800EFFDA8E78C00002072B6FEE708B51548E3
:1007C800154BC0F8B0300A23C0F8B4304FF080435E
:1007D800C0F8B8304FF00073C0F8BC304FF4403365
:1007E800C0F8C0304FF48003C0F8C430002380F84C
:1007F800C83080F8C93080F8CA3080F8CB3080F82B
:10080800CC3080F8CD30B03000F0D2F900B908BD56
:10081800FFF7D2FF8C0000200064004000B58BB0C9
:100828001448154BC3624FF4E13303630023436359
:100838008363C3630C22026443648364C3640365F3
:100848002C3002F008FD98B9012208920A2305937A
:100858000023049300930193029303930693079252
:1008680009936946054800F049FA0BB05DF804FBA6
:10087800FFF7A2FF8C000020004400403C0100204C
:1008880000B597B04422002105A802F00DFE002310
:10089800009301930293039304934FF4007000F0C4
:1008A800FDFE28BB1023059301220B9200230C9315
:1008B80060230D9302230F93109211921422129227
:1008C800072213921493159305A800F0D1FF88B955
:1008D8000F23009303230193902302930021039194
:1008E8000491684601F0D2FA30B917B05DF804FBFC
:1008F800FFF762FFFFF760FFFFF75EFF08B500F044
:1009080035F9FFF7BDFFFFF7DDFDFFF757FFFFF7ED
:1009180085FF084C04F1B005284600F072FA0E2253
:10092800214604F12C0002F033FD0221284600F094
:10093800B0FBFEE78C00002082B00A4B1A6E42F032
:1009480001021A661A6E02F001020092009A9A6D6C
:1009580042F080529A659B6D03F080530193019B8E
:1009680002B070470010024000B589B0002303931D
:10097800049305930693079302681C4B9A4202D08E
:1009880009B05DF804FB03F5D6339A6D42F00072A6
:100998009A659A6D02F000720192019ADA6C42F03F
:1009A8000102DA64DB6C03F001030293029B4FF44B
:1009B800C053039302230493032306930923079345
:1009C80003A94FF0904000F061FD00221146142069
:1009D80000F0B4FC142000F0E9FC002211461520B8
:1009E80000F0ACFC152000F0E1FCC9E70064004011
:1009F80010B5AAB004460021259126912791289187
:100A08002991882203A802F04FFD22681C4B9A42C4
:100A180001D02AB010BD0223039303A801F082FC81
:100A280050BB184B9A6D42F400329A659A6D02F4E5
:100A380000320192019ADA6C42F00102DA64DB6C4E
:100A480003F001030293029B0C23259302232693B0
:100A580000242794032328930723299325A94FF0DB
:100A6800904000F013FD22462146262000F066FC47
:100A7800262000F09BFCCCE7FFF79EFED1E700BFE5
:100A88000044004000100240FEE7FEE7FEE7FEE7F4
:100A9800FEE770477047704708B500F077F808BD63
:100AA80008B5024800F013FB08BD00BF3C01002058
:100AB80008B5024800F00BFB08BD00BF3C01002050
:100AC80008B5024801F09EFE08BD00BFB80000202E
:100AD80008B503460B4A126842B10A4A1068034433
:100AE8006A46934206D8074A136008BD054A064974
:100AF8001160F2E702F0A6FC0C2303604FF0FF3010
:100B0800F3E700BF80010020A0010020034AD2F8CB
:100B1800883043F47003C2F88830704700ED00E075
:100B2800104B1B780BB90120704710B504464FF4E1
:100B38007A70B0FBF3F30C4A1068B0FBF3F000F0E6
:100B480043FC68B90F2C01D901200AE00022214694
:100B58004FF0FF3000F0F2FB024B5C60002000E039
:100B6800012010BD040000200000002010B5032063
:100B780000F0D2FB0F20FFF7D3FF10B1012420466D
:100B880010BD0446FFF7D8FEF9E70000034B1B78B9
:100B9800034A11680B441360704700BF040000202B
:100BA80088010020014B1868704700BF88010020A9
:100BB800002800F0A18038B5044690F82030D3B161
:100BC8002268136843F001031360FFF7EBFF054643
:100BD80023685A6812F0010F10D1FFF7E3FF401B9A
:100BE8000A28F5D9636A43F400336362052384F85D
:100BF8002030012038BDFFF7B7FEE1E71A6822F080
:100C080002021A60FFF7CEFF054623685A6812F001
:100C1800020F0DD0FFF7C6FF401B0A28F5D9636AFB
:100C280043F400336362052384F820300120E1E7B0
:100C3800227E012A3DD01A6822F080021A60637E63
:100C4800012B3BD02268136823F040031360A37E76
:100C5800012B39D02268136823F020031360E37E48
:100C6800012B37D02268136843F010031360237FE9
:100C7800012B35D02268136823F008031360637FC3
:100C8800012B33D02268136823F004031360A36890
:100C9800E268134322691343626913436268013AA5
:100CA80021681343CB6100206062012384F820305F
:100CB800A0E71A6842F080021A60C0E72268136849
:100CC80043F040031360C2E72268136843F020032F
:100CD8001360C4E72268136823F010031360C6E7A3
:100CE8002268136843F008031360C8E72268136892
:100CF80043F004031360CAE701207047026890F8C4
:100D08002030013BDBB2012B05D9436A43F4802331
:100D180043620120704730B4D2F8003243F0010337
:100D2800C2F800324B6903F01F03012000FA03F3F5
:100D3800D2F81C026FEA030C20EA0300C2F81C0276
:100D4800C869B0B9D2F80C020CEA0000C2F80C026B
:100D58008C884869CD6844EA0544483042F83040F8
:100D68000C8848698D6844EA0544483002EBC000A5
:100D78004460C86901281BD0886980BBD2F8040286
:100D88000CEA0000C2F80402086970BBD2F8140229
:100D98000CEA0000C2F81402096A01292BD0D2F823
:100DA800003223F00103C2F80032002030BC704743
:100DB800D2F80C021843C2F80C028C8848690D68F6
:100DC80044EA0544483042F830408C8948698D68C7
:100DD80044EA0544483002EBC0004460CCE7D2F84E
:100DE80004021843C2F80402CEE7D2F814021843EA
:100DF800C2F81402D0E7D2F81C120B43C2F81C3216
:100E0800CDE770B5044690F82050EDB2012D06D01C
:100E1800436A43F4002343620125284670BD022338
:100E280080F820300268136823F001031360FFF78D
:100E3800B9FE064623685B6813F0010F0CD0FFF774
:100E4800B1FE831B0A2BF5D9636A43F4003363624E
:100E5800052384F82030E0E700256562DDE730B53A
:100E680090F820C00468A4680CF1FF3C5FFA8CFC81
:100E7800BCF1010F62D814F0E05F59D0C4F3016CE3
:100E8800012404FA0CF41C608B68002B3DD10D681A
:100E9800CB68046843EA45550CF118031B01E5507B
:100EA80003680C690CF1180E03EB0E135C600B7DE4
:100EB800012B35D0D17993791B0443EA0163517929
:100EC80043EA012314790168234301EB0C11C1F8AB
:100ED8008C31D17893781B0443EA0163517843EA53
:100EE8000123117802680B4302EB0C12C2F8883117
:100EF80002680CF1180C4FEA0C1C52F80C3043F045
:100F0800010342F80C3000201DE04C6843EAC4039A
:100F1800CC6823430CF11804240105682B51BFE762
:100F2800036803EB0E13596841F480715960C1E7F7
:100F3800436A43F400134362012004E0436A43F424
:100F480080234362012030BD90F820C00CF1FF3CA3
:100F58005FFA8CFCBCF1010F00F2958030B451B9F6
:100F68000468E46814F0030F10D1436A43F40013D3
:100F78004362012077E00468246914F0030F05D167
:100F8800436A43F40013436201206CE001F11B043F
:100F9800240105682C5904F004049460002C64D1E1
:100FA80001F11B04240105682C59640D14600468C0
:100FB80001F11B0C4FEA0C1C54F80C4004F002041D
:100FC800D46004686444646804F00F04146104681D
:100FD80064446468C4F307249461046864446468DE
:100FE800240C5461026802EB0112D2F8B8211A707D
:100FF800026802EB0112D2F8B821C2F307225A7034
:10100800026802EB0112D2F8B821C2F307429A70C3
:10101800026802EB0112D2F8B821120EDA700268E7
:1010280002EB0112D2F8BC211A71026802EB01121C
:10103800D2F8BC21C2F307225A71026802EB0112EE
:10104800D2F8BC21C2F307429A71026802EB01127E
:10105800D2F8BC21120EDA7179B90268D36843F06C
:101068002003D360002030BC704701F11B04240129
:1010780005682C59E408546099E70268136943F03D
:1010880020031361EEE7436A43F48023436201209F
:10109800704790F82030013BDBB2012B05D9436A39
:1010A80043F480234362012070470268536919435F
:1010B800516100207047704770477047704770470C
:1010C80070477047704770477047704770472DE901
:1010D800F84F054603685C69D3F804809F68D3F825
:1010E8000CB0D3F810A0D3F8189014F001063BD038
:1010F80017F0010616D001229A6017F0020F08D1E6
:1011080017F0040F0CD117F0080606D04FF48056DC
:1011180008E0FFF7D0FF002604E0FFF7CFFF01E06B
:101128004FF4006617F4807F0DD02B684FF480725F
:101138009A6017F4007F40F0868017F4806F00F003
:10114800868046F4005617F4803F0DD02B684FF484
:1011580080329A6017F4003F40F0838017F4802FA4
:1011680000F0838046F4004614F0080F07D01BF007
:10117800100F04D046F400762B681022DA6014F0C1
:10118800040F02D01BF0080F79D114F0020F04D01D
:101198002B68DB6813F0030F78D114F0400F07D0E9
:1011A8001AF0100F04D046F480662B6810221A61DA
:1011B80014F0200F02D01AF0080F6BD114F0100FA2
:1011C80004D02B681B6913F0030F6AD114F4003F95
:1011D80002D018F0100F68D114F4803F02D018F034
:1011E800080F69D114F4004F7AD018F0040F74D0A6
:1011F80014F4807F04D019F0010F01D046F00106E5
:1012080014F4007F04D019F0020F01D046F0020652
:1012180014F4806F04D019F0040F01D046F00406CE
:1012280014F4006F59D019F0700956D0B9F1400F75
:1012380065D058D8B9F1200F5ED0B9F1300F42D13E
:1012480046F0200644E02846FFF736FF7BE717F410
:10125800006F02D046F4804675E72846FFF72FFF57
:1012680071E72846FFF729FF7EE717F4002F02D021
:1012780046F4803678E72846FFF722FF74E72B68A4
:101288000822DA602846FFF71CFF7EE72846FFF7AA
:1012980029F982E72B6808221A612846FFF713FF0D
:1012A8008CE72846FFF70EFF90E72B6810225A605C
:1012B8002846FFF709FF8FE72B6808225A6028465F
:1012C800FFF703FF8EE7B9F1100F01D146F00806CA
:1012D8002A68936923F0700393612B6804225A608B
:1012E8009EB9BDE8F88FB9F1500F0BD0B9F1600F76
:1012F800EED146F48076EBE746F01006E8E746F0D4
:101308004006E5E746F08006E2E76B6A1E436E6238
:101318002846FFF7DBFEE4E7074AD36823F4E063D7
:101328001B041B0C000200F4E060034343F0BF639E
:1013380043F40033D360704700ED00E000B5194B6B
:10134800DB68C3F30223C3F1070CBCF1040F28BF09
:101358004FF0040C03F1040EBEF1060F18D9033B3D
:101368004FF0FF3E0EFA0CFC21EA0C0199400EFAF0
:1013780003F322EA0303194300280BDB0901C9B26E
:1013880000F1604000F5614080F800135DF804FB4F
:101398000023E5E700F00F000901C9B2024B195418
:1013A800F4E700BF00ED00E014ED00E0002807DBE3
:1013B80000F01F02400901239340024A42F82030FE
:1013C800704700BF00E100E00138B0F1807F0BD228
:1013D8004FF0E0235861054AF02182F823100020DD
:1013E800986107221A6170470120704700ED00E0FC
:1013F80090F82530DBB2022B06D00423C363002308
:1014080080F82430012070470268136823F00E0327
:1014180013600268136823F001031360436C03F040
:101428001C03016C012202FA03F34B6080F82520AB
:10143800002380F824301846704708B590F8253006
:10144800DBB2022B03D00423C363012008BD02686A
:10145800136823F00E0313600268136823F0010376
:101468001360436C03F01C03016C012202FA03F3BE
:101478004B6080F82520002380F82430836B13B15B
:1014880098470020E2E70020E0E70000F0B583B0CD
:1014980000236BE085685E000324B44025EA040558
:1014A800CC68B4402C438460456825EA0C054C6838
:1014B800C4F300149C402C43446069E0C56A25EAE3
:1014C8000C0CC4F3C0049C4044EA0C04C46265E0FC
:1014D800DD08083550F8256003F007044FEA840C4E
:1014E8000F2404FA0CF426EA040E0C6904FA0CF42E
:1014F80044EA0E0440F8254067E0062400E0002492
:1015080004FA0EF42C430CF1020C5C4D45F82C4007
:101518005B4CA568D44325EA02064F6817F4801F80
:1015280001D042EA0506564DAE60ED6804EA0506AC
:101538004F6817F4001F01D042EA0506504DEE60CF
:101548006D6804EA05064F6817F4003F01D042EAC7
:1015580005064B4D6E602D682C404E6816F4803F92
:1015680001D042EA0504464A146001330A6832FA97
:1015780003F400F081804FF0010C0CFA03FC1CEA24
:101588000202F2D04C6804F00304013C012C81D91A
:101598004C6804F0030EBEF1030F8FD04C6804F0C2
:1015A8000304032C0CD0C4685D004FF0030C0CFA44
:1015B80005FC24EA0C0C8C68AC4044EA0C04C460BA
:1015C8004C6804F00304022C82D004684FEA430EEE
:1015D8004FF0030C0CFA0EFC24EA0C0C4C6804F0D7
:1015E800030404FA0EF444EA0C0404604C6814F48E
:1015F800403FBAD0234C256E45F001052566246E80
:1016080004F001040194019C4FEA930C0CF10205CB
:101618001A4C54F8255003F003044FEA840E0F24A3
:1016280004FA0EF425EA0405B0F1904F3FF467AFD1
:10163800154CA04216D004F58064A04214D004F5DD
:101648008064A04212D004F58064A04210D004F552
:101658008064A0420ED004F58064A0423FF44DAFF0
:1016680007244DE701244BE7022449E7032447E711
:10167800042445E7052443E703B0F0BD000001401A
:10168800000401400010024000040048024B1868A2
:1016980000F4C060704700BF00700040B0F5007FE4
:1016A8000FD01F4B1B6803F4C063B3F5806F34D0B1
:1016B8001B4A136823F4C06343F48063136000205B
:1016C8007047174B1B6803F4C063B3F5007F20D045
:1016D800134A136823F4C06343F400731360114B77
:1016E8001B68322202FB03F30F4AA2FB03239B0C65
:1016F800013300E0013B0A4A526912F4806F01D0BD
:10170800002BF7D1064B5B6913F4806F03D10020DF
:10171800704700207047032070470020704700BFC3
:10172800007000400000002083DE1B4330B583B00A
:101738000446204B9B6D13F0805F0BD0FFF7A6FF8C
:10174800B0F5007F17D0802C1FD82DD0702C2DD04D
:1017580000211BE0174DAB6D43F08053AB65AB6DBB
:1017680003F080530193019BFFF790FFAB6D23F0CB
:101778008053AB65E4E7802C03D9A02C03D9022160
:1017880004E0002102E0012100E003210A4A136875
:1017980023F007030B431360136803F007038B421E
:1017A80006D1002003B030BD0221EFE70121EDE7AB
:1017B8000120F7E70010024000200240284A936801
:1017C800D26802F0030213F00C030AD00C2B06D0E7
:1017D800042B1FD0082B20D00020024610E0012A3D
:1017E800F6D11F4A126812F0080F0CD11C4AD2F821
:1017F8009420C2F303221B4951F8222043B1002050
:101808000C2B0DD07047164A1268C2F30312F2E788
:101818001046F5E714480022F2E714480022EFE7E3
:101828000F4BDB6803F00303022B16D0032B00D108
:101838000E4A0B49C868C0F30210431CC868C0F3BD
:10184800062002FB00F0B0FBF3F0CB68C3F3416362
:1018580001335B00B0FBF3F0D4E7034AE9E700BFCC
:1018680000100240403600080024F40000127A00FC
:10187800002800F0F182F0B583B00446964B9D68CD
:1018880005F00C05DE6806F00306036813F0100F78
:101898005AD0E5B10C2D18D0A369002B00F0BB80FD
:1018A8008D4A136843F001031360FFF77BF907467D
:1018B800894B1B6813F0020F40F09A80FFF772F90A
:1018C800C01B0228F4D90320D1E2012EE4D1824BB7
:1018D8001B6813F0020F03D0A369002B00F0BE822F
:1018E800206A7D4B1B6813F0080F5BD07A4B1B688E
:1018F80003F0F00398425CD8774B1A6842F008026C
:101908001A601A6822F0F002216A0A431A605A68BB
:1019180022F47F42E16942EA01225A60002D60D038
:10192800FFF74CFF6C4B9B68C3F303136B4AD35C04
:1019380003F01F03D8406A4B18606A4B1868FFF71A
:10194800EFF8002840F09382236813F0010F00F0AD
:101958008180082D75D00C2D71D06368B3F5803F58
:1019680000F09780B3F5A02F00F099805A4B1A68C1
:1019780022F480321A601A6822F480221A6063689E
:10198800002B00F09980FFF70DF90746524B1B68B2
:1019980013F4003F5ED1FFF705F9C01B6428F5D9A1
:1019A800032064E24C4BD3F894301B0903F0F00396
:1019B800A0E7FFF7BBFE002840F05282464B1A68AA
:1019C80042F008021A601A6822F0F002216A0A43FB
:1019D8001A605A6822F47F42E16942EA01225A6099
:1019E8009EE7206AFFF7A2FE002899D001203EE278
:1019F800394B1A6842F008021A601A6822F0F0029D
:101A0800216A0A431A605A6822F47F42E16942EA6D
:101A180001225A6098E7304A136823F001031360E3
:101A2800FFF7C0F807462C4B1B6813F0020F8BD04A
:101A3800FFF7B8F8C01B0228F5D9032017E2032ED8
:101A48008BD1254B1B6813F4003F03D06368002B30
:101A580000F00882236813F0020F58D0042D45D0F7
:101A68000C2D41D0E368002B77D01B4A136843F450
:101A780080731360FFF796F80646174B1B6813F43C
:101A8800806F61D1FFF78EF8801B0228F5D90320FB
:101A9800EDE1114A136843F4803313606FE703F1F3
:101AA8008043A3F53C331A6842F480221A601A680E
:101AB80042F480321A6062E7FFF774F80746064B73
:101AC8001B6813F4003FC5D0FFF76CF8C01B6428EF
:101AD800F5D90320CBE100BF0010024070360008A2
:101AE8000000002008000020022EBBD1A34B1B6879
:101AF80013F4806F03D0E368002B00F0B5819F4A90
:101B0800536823F0F853216943EA0163536023685B
:101B180013F0080F4CD063699BB3984AD2F89430FD
:101B280043F00103C2F89430FFF73CF80646934BA4
:101B3800D3F8943013F0020F3AD1FFF733F8801B33
:101B48000228F4D9032092E18C4A536823F0F85311
:101B5800216943EA01635360D9E7884A136823F48B
:101B680080731360FFF71EF80646844B1B6813F456
:101B7800806FCCD0FFF716F8801B0228F5D9032018
:101B880075E17E4AD2F8943023F00103C2F894300C
:101B9800FFF708F80646794BD3F8943013F0020F94
:101BA80006D0FEF7FFFF801B0228F4D903205EE170
:101BB800236813F0040F7AD0704B9B6D13F0805F8D
:101BC80036D16E4B9A6D42F080529A659B6D03F048
:101BD80080530193019B0126694B1B6813F4807F96
:101BE80028D0A368012B39D0052B3FD0634BD3F8FD
:101BF800902022F00102C3F89020D3F8902022F020
:101C08000402C3F89020A368002B3DD0FEF7CAFF5A
:101C180007465A4BD3F8903013F0020F46D1FEF71F
:101C2800C1FFC01B41F288339842F2D903201EE15C
:101C38000026D1E7524A136843F480731360FEF715
:101C4800B1FF07464E4B1B6813F4807FC9D1FEF7DE
:101C5800A9FFC01B0228F5D9032008E1474AD2F89A
:101C6800903043F00103C2F89030CCE7434BD3F8EF
:101C7800902042F00402C3F89020D3F8902042F05C
:101C88000102C3F89020BEE7FEF78CFF07463B4BE6
:101C9800D3F8903013F0020F08D0FEF783FFC01B73
:101CA80041F288339842F2D90320E0E0EEB9A36A02
:101CB800002B00F0DB80022B1DD00C2D00F0DD8006
:101CC8002E4A136823F080731360FEF76BFF0446F7
:101CD8002A4B1B6813F0007F00F0B780FEF762FF05
:101CE800001B0228F4D90320C1E0244A936D23F095
:101CF80080539365DBE7214BDB6803F00301E26A5D
:101D080091420FD00C2D00F0B4801C4B1B6813F0CF
:101D1800806F40F0B080194B1B6813F0805F31D0A2
:101D28000120A4E003F07002216B0139B2EB011F1E
:101D3800E8D103F4FE42616BB2EB012FE2D103F468
:101D48000031A26B073A18BF01229142DAD103F49D
:101D5800C001E26B5208013AB1EB425FD2D103F005
:101D6800C063226C5208013AB3EB426FCAD1034BED
:101D78001B6813F0007F4ED0002078E0001002406E
:101D8800007000403E4A136823F080731360FEF72A
:101D980009FF05463A4B1B6813F0007F06D0FEF793
:101DA80001FF401B0228F5D9032060E0344AD368BC
:101DB80034491940E36A206B013843EA0013606B29
:101DC80043EA0023E06B4008013843EA4053206CA3
:101DD8004008013843EA4063A06B000943EA4043E6
:101DE8000B43D360136843F080731360D36843F0E8
:101DF8008073D360FEF7D6FE0446214B1B6813F0B0
:101E0800007F06D1FEF7CEFE001B0228F5D903207D
:101E18002DE000202BE01A4B1A6842F080721A60FD
:101E2800DA6842F08072DA60FEF7BCFE0446144BB2
:101E38001B6813F0007F06D1FEF7B4FE031B022BCC
:101E4800F5D9032013E0002011E00D4AD1680E4BAC
:101E58000B40D36000200AE001207047012006E013
:101E6800012004E0012002E0012000E0002003B08E
:101E7800F0BD0120FBE70120F9E70120F7E700BFEB
:101E8800001002408C809DF9FCFFEEFE002800F057
:101E9800AF8070B50D460446594B1B6803F0070325
:101EA8008B420BD2564A136823F007030B43136087
:101EB800136803F007038B4240F09C80236813F0FB
:101EC800020F0CD0A2684F4B9B6803F0F0039A42B4
:101ED80005D94C498B6823F0F0031A438A602368BC
:101EE80013F0010F39D06368032B09D0022B26D0D9
:101EF80063BB444A126812F0020F06D1012076E053
:101F0800404A126812F0007F76D03E498A6822F073
:101F1800030213438B60FEF745FE0646394B9B6868
:101F280003F00C036268B3EB820F16D0FEF73AFE9B
:101F3800801B41F288339842F0D9032057E0314A98
:101F4800126812F4003FE0D1012050E02D4A1268D7
:101F580012F4806FD9D1012049E0236813F0020FF1
:101F68000CD0A268274B9B6803F0F0039A4205D275
:101F780024498B6823F0F0031A438A60204B1B68BE
:101F880003F00703AB420AD91D4A136823F007037D
:101F98002B431360136803F00703AB422ED1236869
:101FA80013F0040F06D0174A936823F4E063E1683E
:101FB8000B439360236813F0080F07D0114A936806
:101FC80023F46053216943EAC1039360FFF7F6FBEA
:101FD8000C4B9B68C3F303130B4AD35C03F01F033A
:101FE800D8400A4B18600A4B1868FEF799FD70BD77
:101FF800012070470120FAE70120F8E70120F6E701
:102008000020024000100240703600080000002046
:1020180008000020014B1868704700BF000000202E
:1020280008B5FFF7F7FF054B9B68C3F30223044A83
:10203800D35C03F01F03D84008BD00BF0010024066
:102048008036000808B5FFF7E5FF054B9B68C3F32A
:10205800C223044AD35C03F01F03D84008BD00BF65
:102068000010024080360008F8B504460F46594B68
:10207800DB6813F0030F18D0564BDB6803F003033B
:102088000268934202D001252846F8BD002A00F0D4
:102098009E80504BDB68C3F30213013342689342BE
:1020A80001D00125F0E7002509E00368022B57D08D
:1020B800032B5CD0012B42D00125002DE4D1454AE9
:1020C800136823F080631360FEF76CFD0646414BEE
:1020D8001B6813F0006F05D0FEF764FD831B022B0D
:1020E800F5D90325002DCFD1002F4ED139490B69E1
:1020F80023F41F3323F44073A068E26812095204E2
:1021080042EA002213430B61324A136843F08063AA
:102118001360FEF747FD06462E4B1B6813F0006F51
:1021280005D1FEF73FFD831B022BF5D90325002DB2
:10213800AAD1284A1369A1690B431361A4E7254A68
:10214800126812F0020F1ED02248C26822F07302F1
:102158006168013943EA01131343C3600025ACE702
:102168001C4A126812F4806FEED10125A5E7194ABE
:10217800126812F4003FE7D1164A126812F4802F51
:10218800E2D1012599E7012597E7012F0FD01148E2
:10219800026922F0C06222F4FE42A16863695B080A
:1021A800013B5B0643EA012313430361ACE709489B
:1021B800026922F4C00222F4FE42A16823695B0886
:1021C800013B5B0543EA0123134303619CE70125B7
:1021D8005AE700BF00100240F8B504460F46504BBE
:1021E800DB6813F0030F18D04D4BDB6803F00303D3
:1021F8000268934202D001252846F8BD002A00F063
:102208008C80474BDB68C3F3021301334268934267
:1022180001D00125F0E7002509E00368022B57D01B
:10222800032B5CD0012B42D00125002DE4D13C4A80
:10223800136823F080531360FEF7B4FC0646384B4E
:102248001B6813F0005F05D0FEF7ACFC831B022B64
:10225800F5D90325002DCFD1002F4ED130494B6938
:1022680023F41F3323F44073A068E2681209520470
:1022780042EA002213434B61294A136843F0805312
:102288001360FEF78FFC0646254B1B6813F0005FB2
:1022980005D1FEF787FC831B022BF5D90325002DFA
:1022A800AAD11F4A536961690B435361A4E71C4AC9
:1022B800126812F0020F1ED01948C26822F0730289
:1022C8006168013943EA01131343C3600025ACE791
:1022D800134A126812F4806FEED10125A5E7104A5F
:1022E800126812F4003FE7D10D4A126812F4802FE9
:1022F800E2D1012599E7012597E70948426922F0CB
:10230800C06222F4FE42A16823695B08013B5B06B8
:1023180043EA012313434361AEE701256CE700BF9D
:10232800001002402DE9F04182B00446036813F41E
:10233800006F33D0436EB3F5000F1FD00CD823B312
:10234800B3F5800F05D100212030FFF745FF064681
:1023580020E001273E4623E0B3F5400F0BD10026CD
:10236800604AD2F8883023F44003616E0B43C2F808
:102378008830002714E001273E4611E0594AD36807
:1023880043F48033D3600026EAE700210430FFF7E6
:102398006BFE0646002EE3D0374601E000273E4696
:1023A800236813F4805F30D0A36EB3F1007F1FD091
:1023B8000DD81BB3B3F1807F06D1002104F12000B2
:1023C800FFF70AFF064605E001273E461DE0B3F188
:1023D800407F0AD1C6B9434AD2F8883023F0407307
:1023E800A16E0B43C2F888300FE001273E460CE08F
:1023F8003C4AD36843F48033D360EBE70021201DC7
:10240800FFF732FE0646E5E73746236813F4003F38
:1024180071D0344B9B6D13F0805F4ED1314B9A6D68
:1024280042F080529A659B6D03F080530193019BA3
:102438004FF001082C4A136843F480731360FEF7C9
:10244800B1FB0546284B1B6813F4807F05D1FEF7C6
:10245800A9FB401B0228F5D90326002E46D1214BA3
:10246800D3F8903013F4407316D0D4F884209A42ED
:1024780012D01C4AD2F8903023F44073D2F890104E
:1024880041F48031C2F89010D2F8901021F48031D4
:10249800C2F89010C2F8903013F0010F10D1002E3E
:1024A80040F027810F4AD2F8903023F44073D4F8D3
:1024B80084100B43C2F8903019E04FF00008B9E7D8
:1024C800FEF770FB0546074BD3F8903013F0020F68
:1024D800E5D1FEF767FB401B41F288339842F2D9F9
:1024E8000326DCE700100240007000403746B8F1D0
:1024F800000F40F00081236813F0010F08D09D4AB7
:10250800D2F8883023F00303A16B0B43C2F888305C
:10251800236813F0020F08D0964AD2F8883023F0C7
:102528000C03E16B0B43C2F88830236813F0040FE7
:1025380008D0904AD2F8883023F03003216C0B433E
:10254800C2F88830236813F0080F08D0894AD2F8F7
:10255800883023F0C003616C0B43C2F888302368CD
:1025680013F0100F08D0834AD2F8883023F4407350
:10257800A16C0B43C2F88830236813F0200F08D0F1
:102588007C4AD2F8883023F44063E16C0B43C2F8EC
:102598008830236813F4007F08D0764AD2F8883050
:1025A80023F44023E16D0B43C2F88830236813F409
:1025B800806F08D06F4AD2F8883023F44013216E18
:1025C8000B43C2F88830236813F0400F08D0694ADB
:1025D800D2F8883023F44053216D0B43C2F8883079
:1025E800236813F0800F08D0624AD2F8883023F4A9
:1025F8004043616D0B43C2F88830236813F4807F31
:1026080008D05C4AD2F8883023F44033A16D0B43DC
:10261800C2F88830236813F4005F0FD0554AD2F807
:10262800883023F04063E16E0B43C2F88830E36ED4
:10263800B3F1006F65D0B3F1806F67D0236813F4EE
:10264800002F0FD04B4AD2F8883023F04063216F17
:102658000B43C2F88830236FB3F1006F5ED0B3F13B
:10266800806F60D0236813F4802F0FD0414AD2F8CE
:10267800883023F04063616F0B43C2F88830636F82
:10268800B3F1006F57D0B3F1806F59D0236813F4BA
:10269800804F0FD0374AD2F8883023F04053A16FCB
:1026A8000B43C2F88830A36FB3F1805F50D0B3F109
:1026B800005F55D0236813F4004F08D02D4AD2F894
:1026C800883023F08043E16F0B43C2F888302368D9
:1026D80013F4803F09D0274AD2F8883023F000430A
:1026E800D4F880100B43C2F88830384602B0BDE8F1
:1026F800F0813746FBE61F4A936D23F080539365BC
:10270800F9E6D36843F48013D36097E70121201DCD
:10271800FFF7AAFC002891D007468FE7D36843F457
:102728008013D3609EE70121201DFFF79DFC002840
:1027380098D0074696E7D36843F48013D360A5E79B
:102748000121201DFFF790FC00289FD007469DE738
:102758000221201DFFF788FC0028ABD00746A9E717
:10276800022104F12000FFF737FD0028A2D0074618
:10277800A0E700BF00100240026852E8003F23F4BF
:10278800907342E800310029F6D1026802F108038B
:1027980053E8003F23F00103083242E800310029E2
:1027A800F3D1036E012B05D02023C36700230366F2
:1027B80043667047026852E8003F23F0100342E87E
:1027C80000310029F6D1EFE7704708B5026852E8F2
:1027D800003F23F0400342E800310029F6D12023CE
:1027E800836700238366FFF7EFFF08BD704708B5CE
:1027F800806A0023A0F85A30A0F85230FFF7F6FF9D
:1028080008BD704770B504460168CB6908688D68D3
:1028180040F60F021A4005D113F0200F02D010F035
:10282800200F20D12AB115F0010222D1AC4E30423E
:102838001FD1226E012A00F0AB8013F4801F03D051
:1028480015F4800F40F0398113F0800F03D010F099
:10285800800F40F0398113F0400F03D010F0400F83
:1028680040F0398170BD636E002BFBD0204698473D
:10287800F8E713F0010F09D010F4807F06D0012586
:102888000D62D4F880102943C4F8801013F0020FA9
:1028980009D042B1216802250D62D4F8801041F0B8
:1028A8000401C4F8801013F0040F09D042B1216864
:1028B80004250D62D4F8801041F00201C4F880109C
:1028C80013F0080F0BD010F0200F00D13AB1226896
:1028D80008211162D4F880200A43C4F8802013F438
:1028E800006F0CD010F0806F09D022684FF400619F
:1028F8001162D4F8802042F02002C4F88020D4F875
:102908008020002AAED013F0200F06D010F0200F40
:1029180003D0636E0BB120469847D4F88020236813
:102928009B6813F0400F02D112F0280F29D02046DF
:10293800FFF722FF23689B6813F0400F1DD0226821
:1029480002F1080353E8003F23F04003083242E84D
:1029580000310029F3D1236F5BB1624A9A63206F7B
:10296800FEF76BFD00283FF47DAF206F836B98471F
:1029780078E72046FFF73AFF74E72046FFF736FF6F
:1029880070E72046FFF732FF0023C4F8803069E77C
:1029980013F0100F3FF451AF10F0100F3FF44DAF8C
:1029A80010230B6223689B6813F0400F4ED0226FF0
:1029B80013685B689BB2002B3FF454AFB4F858100F
:1029C80099427FF64FAFA4F85A3013681B6813F08A
:1029D800200F30D1226852E8003F23F4807342E888
:1029E80000310029F6D1226802F1080353E8003FBC
:1029F80023F00103083242E800310029F3D12268AC
:102A080002F1080353E8003F23F04003083242E88C
:102A180000310029F3D12023E367002323662268CD
:102A280052E8003F23F0100342E800310029F6D1B4
:102A3800206FFEF7DDFCB4F85810B4F85A309BB29A
:102A4800C91A89B22046FFF7DCFE0BE7B4F8581024
:102A5800B4F85A309BB2C91A89B2B4F85A309BB24A
:102A6800002B3FF4FFAE00293FF4FCAE226852E889
:102A7800003F23F4907342E800300028F6D1226822
:102A880002F1080353E8003F23F00103083242E84B
:102A980000300028F3D12023E36700232366636610
:102AA800226852E8003F23F0100342E80030002873
:102AB800F6D12046FFF7A5FED4E64FF480130B624B
:102AC800204600F093FCCDE6A36E002B3FF4CAAE7F
:102AD80020469847C6E62046FFF777FEC2E600BFC5
:102AE80020010004F727000808B5B0F85C30C26F71
:102AF800222A06D00268138B9BB243F00803138383
:102B080008BD0268918CDBB2426D0B401370436DB7
:102B180001334365B0F85A309BB2013B9BB2A0F831
:102B28005A30B0F85A309BB2002BE9D1026852E80B
:102B3800003F23F4907342E800310029F6D102687F
:102B480002F1080353E8003F23F00103083242E88A
:102B580000310029F3D12023C36700234366036EA5
:102B6800012B16D100230366026852E8003F23F0C8
:102B7800100342E800310029F6D10368DA6912F03F
:102B8800100F01D010221A62B0F85810FFF739FE62
:102B9800B6E7FDF7B1FDB3E708B5B0F85C30C26F32
:102BA800222A06D00268138B9BB243F008031383D2
:102BB80008BD0268918C426D0B401380436D02334F
:102BC8004365B0F85A309BB2013B9BB2A0F85A302B
:102BD800B0F85A309BB2002BEAD1026852E8003FA5
:102BE80023F4907342E800310029F6D1026802F11B
:102BF800080353E8003F23F00103083242E800319C
:102C08000029F3D12023C36700234366036E012BF9
:102C180016D100230366026852E8003F23F0100330
:102C280042E800310029F6D10368DA6912F0100F82
:102C380001D010221A62B0F85810FFF7E2FDB7E78A
:102C4800FDF75AFDB4E7000010B504460168836833
:102C58000269134342691343C269134308688E4AE1
:102C6800024013430B602268536823F44053E16821
:102C78000B435360A1692268884B9A4201D0236AAA
:102C88001943936823F430630B4393602368844AA1
:102C9800934210D0834A934221D0834A934237D03B
:102CA800824A93425CD0824A93426BD07B4A9342D9
:102CB8007DD010223AE002F55842D2F8882002F07E
:102CC8000302032A09D8DFE802F00204870601227A
:102CD8002CE004222AE0082228E0102226E002F54F
:102CE800E632D2F8882002F00C020C2A0ED8DFE86F
:102CF80002F0070D0D0D090D0D0D750D0D0D0B00D5
:102D0800002213E0042211E008220FE010220DE057
:102D180002F5E432D2F8882002F03002202A5FD08F
:102D28001AD8002A5ED0102A5ED104225B498B4251
:102D380076D0E069B0F5004F00F0A380082A00F2D1
:102D48000E81DFE812F0DD00F300DB000C01F60075
:102D58000C010C010C01F900302A47D10822E5E7E3
:102D680002F5E232D2F8882002F0C002802A3FD071
:102D780004D8FAB3402A3FD10422D7E7C02A3DD16C
:102D88000822D3E702F5E032D2F8882002F4407234
:102D9800B2F5007F34D005D8A2B3B2F5807F33D125
:102DA8000422C3E7B2F5407F30D10822BEE702F51E
:102DB800C832D2F8882002F44062B2F5006F27D0FA
:102DC80005D83AB3B2F5806F26D10422AEE7B2F542
:102DD800406F23D10822A9E70222A7E70222A5E72C
:102DE8000222A3E70022A1E710229FE710229DE715
:102DF80002229BE7002299E7102297E7102295E725
:102E0800022293E7002291E710228FE710228DE734
:102E180002228BE7002289E7102287E7102285E744
:102E2800082A00F28C80DFE802F0088A2A8A278ABA
:102E38008A8A05004FF4004003E0FFF7F1F8002804
:102E48007FD0626802EB420383427CD8B0EB023F3A
:102E58007BD8010E00025308C0184FF0000341F15F
:102E68000001FDF7ADF9A0F54072124B9A426ED8F9
:102E78002368D860002055E0FEF7A0FCDFE70E4885
:102E8800DFE7082A65D8DFE802F0193305643664FD
:102E980064641D00084815E0F369FFEF00800040F6
:102EA800003801400044004000480040004C004009
:102EB80000500040FFFC0F000024F400FFF7B0F8BA
:102EC800002848D06268530803EB4000B0FBF2F0DA
:102ED800A0F110024FF6EF739A423ED883B223F066
:102EE8000F03C0F3420018432368D860002019E09C
:102EF800FFF7A8F8E4E7FEF761FCE1E71B4802E00A
:102F0800FFF78EF868B3636800EB5300B0FBF3F08B
:102F1800A0F110024FF6EF739A4224D8236880B2CA
:102F2800D860002000236366A36610BDFFF78AF807
:102F3800E8E7FEF743FCE5E74FF40040E3E701204C
:102F4800F0E70020EEE70120ECE70120EAE70120A6
:102F5800E8E70120E6E70020E4E70120E2E70120B6
:102F6800E0E70020DEE70120DCE700BF0024F400F2
:102F7800436A13F0010F06D00268536823F4003344
:102F8800816A0B435360436A13F0020F06D002684C
:102F9800536823F48033C16A0B435360436A13F0C8
:102FA800040F06D00268536823F48023016B0B4397
:102FB8005360436A13F0080F06D00268536823F47D
:102FC8000043416B0B435360436A13F0100F06D064
:102FD8000268936823F48053816B0B439360436AC0
:102FE80013F0200F06D00268936823F40053C16BD6
:102FF8000B439360436A13F0400F0AD0026853688A
:1030080023F48013016C0B435360036CB3F5801FEA
:103018000BD0436A13F0800F06D00268536823F47C
:103028000023816C0B43536070470268536823F494
:10303800C003416C0B435360EBE72DE9F8430546A9
:103048000F4616469946DDF820802C68E46937EA71
:1030580004030CBF4FF0010C4FF0000CB44553D1E2
:10306800B8F1FF3FF1D0FDF79DFDA0EB0900404509
:103078002DD8B8F1000F2AD02B681A6812F0040F67
:10308800E3D0DA6912F4006FDFD04FF400621A62FD
:103098002A6852E8003F23F4D07342E8003100293F
:1030A800F6D12A6802F1080353E8003F23F0010330
:1030B800083242E800310029F3D12023AB67EB67DF
:1030C800C5F88030002385F8743003201DE02A6895
:1030D80052E8003F23F4D07342E800310029F6D1CA
:1030E8002A6802F1080353E8003F23F0010308327D
:1030F80042E800310029F3D12023AB67EB670023B6
:1031080085F87430032000E00020BDE8F8832DE93D
:10311800F04182B01E46836F202B56D104460D46DF
:103128009046002955D0002A55D090F87430012BCC
:1031380053D0012380F874300023C0F88030212355
:103148008367FDF72FFD0746A4F85080A4F8528046
:10315800A368B3F5805F05D04FF00008002384F81A
:10316800743014E0236913B14FF00008F6E7A8465D
:103178000025F3E738F8023B2268C3F308031385F8
:10318800B4F8522092B2013A92B2A4F85220B4F89C
:1031980052309BB273B100963B46002280212046F4
:1031A800FFF74BFFD8B9002DE4D0236815F8012BA1
:1031B8001A85E5E700963B46002240212046FFF7A6
:1031C8003CFF70B92023A36700E0022002B0BDE8ED
:1031D800F0810120FAE70120F8E70220F6E7032052
:1031E800F4E70320F2E730B583B004460023C0F8C3
:1031F8008030FDF7D7FC05462268126812F0080FE8
:103208000DD123681B6813F0040F16D12023A36780
:10321800E3670020206684F8740003B030BD6FF0C7
:103228007E430093034600224FF400112046FFF727
:1032380004FF0028E5D00320EFE76FF07E430093FA
:103248002B4600224FF480012046FFF7F6FE0028A7
:10325800DCD00320E1E768B310B50446836F03B3FD
:103268002423A3672268136823F001031360204610
:10327800FFF7EAFC012813D0636ABBB922685368D8
:1032880023F4904353602268936823F02A039360E1
:103298002268136843F0010313602046FFF7A3FF79
:1032A80010BD80F87430FDF7A3FBD9E72046FFF77F
:1032B8005FFEE3E7012070474165A0F85820A0F8B9
:1032C8005A20002343668368B3F5805F06D0A3B90C
:1032D800036973B9FF23A0F85C3014E0036923B9CC
:1032E80040F2FF13A0F85C300DE0FF23A0F85C303B
:1032F80009E07F23A0F85C3005E0B3F1805F29D0B6
:103308000023A0F85C300023C0F880302223C36774
:10331800026802F1080353E8003F43F00103083252
:1033280042E800310029F3D18368B3F5805F1BD0F0
:10333800154B4366002380F874300369D3B10268E3
:1033480052E8003F43F4907342E800310029F6D177
:103358000020704703691BB97F23A0F85C30D2E7CF
:103368003F23A0F85C30CEE70369002BE0D1074B80
:103378004366DFE7026852E8003F43F0200342E873
:1033880000310029F6D1E3E7F12A0008A12B000853
:1033980038B5C36F202B1ED1F9B102B390F8743041
:1033A800012B1ED0012380F87430002303660368C4
:1033B8000D4CA3420CD05B6813F4000F08D00468CE
:1033C80054E8003F43F0806344E80035002DF6D10F
:1033D800FFF772FF00E0022038BD0120FCE7012062
:1033E800FAE70220F8E700BF0080004070470000BD
:1033F800DFF834D0FDF78AFB0C480D490D4A00234D
:1034080002E0D458C4500433C4188C42F9D30A4A91
:103418000A4C002301E013600432A242FBD300F0FF
:1034280017F8FDF76BFAFEE7008001200000002086
:1034380070000020A0360008700000209C010020C9
:10344800FEE70000014B1868704700BF0C00002021
:1034580070B50D4D0D4C641BA4100026A64209D171
:103468000B4D0C4C00F0DAF8641BA4100026A642A1
:1034780005D170BD55F8043B98470136EEE755F87D
:10348800043B98470136F2E790360008903600086A
:103498009036000894360008024B0146186800F080
:1034A8002BB800BF0C00002002440346934200D111
:1034B800704703F8011BF9E770B50E4E0C463168EA
:1034C800054611B900F08CF830602146284600F016
:1034D80087F8431C0AD0C41C24F00304A04207D078
:1034E800211A284600F07CF8013001D14FF0FF3452
:1034F800204670BD900100202DE9F041CD1C25F03B
:10350800030508350C2D38BF0C25002D074601DBB7
:10351800A94205D90C233B6000263046BDE8F0815E
:103528002E4E00F06DF833681C4634BB29463846E9
:10353800FFF7C2FF431C04464DD134682646002ECF
:1035480040D123683146384604EB030800F048F8B8
:1035580080453AD1216803356D1A25F003050835F1
:103568000C2D38BF0C2529463846FFF7A5FF01303A
:103578002BD023682B4423600EE02268521B1ED4F4
:103588000B2A16D96119A342256018BF59606368D0
:1035980008BF316062514B60384604F10B0600F0F9
:1035A80035F826F00706231DF21AB6D09B1BA35048
:1035B800B3E76268A3420CBF32605A60ECE7234667
:1035C8006468B2E734467668B9E70C233B6038464E
:1035D80000F01CF8A1E72560DEE700BF8C010020A1
:1035E80038B5064D0023044608462B60FDF770FAEF
:1035F800431C02D12B6803B1236038BD940100201D
:10360800014800F009B800BF98010020014800F007
:1036180004B800BF9801002070477047F8B500BF94
:10362800F8BC08BC9E467047F8B500BFF8BC08BC9B
:083638009E46704700000000EF
:10364000A0860100400D0300801A060000350C0022
:1036500040420F0080841E0000093D0000127A00E5
:103660000024F40000366E010048E801006CDC0222
:103670000000000000000000010203040607080922
:08368000000000000102030438
:0836880070CBFF7F0100000080
:08369000AD010008000000007C
:08369800890100080000000098
:1036A00000093D0001000000100000001000002093
:1036B000000000000000000000000000000000000A
:1036C00000000000000000000000000000000000FA
:1036D00000000000000000000000000000000000EA
:1036E00000000000000000000000000000000000DA
:1036F00000000000000000000000000000000000CA
:1037000000000000000000000000000000000000B9
:04000005080033F9C3
:00000001FF
